{
  "_format": "hh-sol-artifact-1",
  "contractName": "DeviceIntegrity",
  "sourceName": "contracts/DeviceIntegrity.sol",
  "abi": [
    {
      "anonymous": false,
      "inputs": [
        {
          "indexed": false,
          "internalType": "bool",
          "name": "isIntegrityValid",
          "type": "bool"
        }
      ],
      "name": "DeviceIntegrityChecked",
      "type": "event"
    },
    {
      "anonymous": false,
      "inputs": [
        {
          "components": [
            {
              "components": [
                {
                  "internalType": "string",
                  "name": "networkInterface",
                  "type": "string"
                },
                {
                  "internalType": "string",
                  "name": "hostname",
                  "type": "string"
                },
                {
                  "internalType": "string",
                  "name": "osArchitecture",
                  "type": "string"
                },
                {
                  "internalType": "string",
                  "name": "logicalCPU",
                  "type": "string"
                },
                {
                  "internalType": "string",
                  "name": "osPlatform",
                  "type": "string"
                },
                {
                  "internalType": "string",
                  "name": "osVersion",
                  "type": "string"
                },
                {
                  "internalType": "string",
                  "name": "osRelease",
                  "type": "string"
                },
                {
                  "internalType": "string",
                  "name": "macAddress",
                  "type": "string"
                },
                {
                  "internalType": "string",
                  "name": "firmwareVersion",
                  "type": "string"
                },
                {
                  "internalType": "string",
                  "name": "userPassPhrase",
                  "type": "string"
                },
                {
                  "internalType": "string",
                  "name": "uuID",
                  "type": "string"
                }
              ],
              "internalType": "struct DeviceIntegrity.StaticDevice",
              "name": "staticParams",
              "type": "tuple"
            },
            {
              "components": [
                {
                  "internalType": "uint256",
                  "name": "minAvailableMemory",
                  "type": "uint256"
                },
                {
                  "internalType": "uint256",
                  "name": "maxAvailableMemory",
                  "type": "uint256"
                },
                {
                  "internalType": "uint256",
                  "name": "minCpuUsage",
                  "type": "uint256"
                },
                {
                  "internalType": "uint256",
                  "name": "maxCpuUsage",
                  "type": "uint256"
                },
                {
                  "internalType": "uint256",
                  "name": "minCpuPercentage",
                  "type": "uint256"
                },
                {
                  "internalType": "uint256",
                  "name": "maxCpuPercentage",
                  "type": "uint256"
                },
                {
                  "internalType": "uint256",
                  "name": "minNetworkBandwidth",
                  "type": "uint256"
                },
                {
                  "internalType": "uint256",
                  "name": "maxNetworkBandwidth",
                  "type": "uint256"
                }
              ],
              "internalType": "struct DeviceIntegrity.DynamicParameters",
              "name": "dynamicParams",
              "type": "tuple"
            }
          ],
          "indexed": false,
          "internalType": "struct DeviceIntegrity.DeviceInfo",
          "name": "device",
          "type": "tuple"
        }
      ],
      "name": "Log",
      "type": "event"
    },
    {
      "anonymous": false,
      "inputs": [
        {
          "indexed": false,
          "internalType": "bytes32",
          "name": "dna",
          "type": "bytes32"
        }
      ],
      "name": "LogDna",
      "type": "event"
    },
    {
      "inputs": [
        {
          "internalType": "bytes32",
          "name": "deviceId",
          "type": "bytes32"
        },
        {
          "components": [
            {
              "internalType": "string",
              "name": "networkInterface",
              "type": "string"
            },
            {
              "internalType": "string",
              "name": "hostname",
              "type": "string"
            },
            {
              "internalType": "string",
              "name": "osArchitecture",
              "type": "string"
            },
            {
              "internalType": "string",
              "name": "logicalCPU",
              "type": "string"
            },
            {
              "internalType": "string",
              "name": "osPlatform",
              "type": "string"
            },
            {
              "internalType": "string",
              "name": "osVersion",
              "type": "string"
            },
            {
              "internalType": "string",
              "name": "osRelease",
              "type": "string"
            },
            {
              "internalType": "string",
              "name": "macAddress",
              "type": "string"
            },
            {
              "internalType": "string",
              "name": "firmwareVersion",
              "type": "string"
            },
            {
              "internalType": "string",
              "name": "userPassPhrase",
              "type": "string"
            },
            {
              "internalType": "string",
              "name": "uuID",
              "type": "string"
            }
          ],
          "internalType": "struct DeviceIntegrity.StaticDevice",
          "name": "staticParams",
          "type": "tuple"
        },
        {
          "components": [
            {
              "internalType": "uint256",
              "name": "availableMemory",
              "type": "uint256"
            },
            {
              "internalType": "uint256",
              "name": "cpuUsage",
              "type": "uint256"
            },
            {
              "internalType": "uint256",
              "name": "cpuPercentage",
              "type": "uint256"
            },
            {
              "internalType": "uint256",
              "name": "networkBandwidth",
              "type": "uint256"
            }
          ],
          "internalType": "struct DeviceIntegrity.VerifyDynamicParameter",
          "name": "verifydynamicParams",
          "type": "tuple"
        }
      ],
      "name": "checkDeviceIntegrity",
      "outputs": [],
      "stateMutability": "nonpayable",
      "type": "function"
    },
    {
      "inputs": [
        {
          "internalType": "bytes32",
          "name": "",
          "type": "bytes32"
        }
      ],
      "name": "deviceDNA",
      "outputs": [
        {
          "internalType": "bytes32",
          "name": "",
          "type": "bytes32"
        }
      ],
      "stateMutability": "view",
      "type": "function"
    },
    {
      "inputs": [
        {
          "internalType": "bytes32",
          "name": "",
          "type": "bytes32"
        }
      ],
      "name": "deviceExists",
      "outputs": [
        {
          "internalType": "bool",
          "name": "",
          "type": "bool"
        }
      ],
      "stateMutability": "view",
      "type": "function"
    },
    {
      "inputs": [
        {
          "internalType": "bytes32",
          "name": "",
          "type": "bytes32"
        }
      ],
      "name": "deviceInfo",
      "outputs": [
        {
          "components": [
            {
              "internalType": "string",
              "name": "networkInterface",
              "type": "string"
            },
            {
              "internalType": "string",
              "name": "hostname",
              "type": "string"
            },
            {
              "internalType": "string",
              "name": "osArchitecture",
              "type": "string"
            },
            {
              "internalType": "string",
              "name": "logicalCPU",
              "type": "string"
            },
            {
              "internalType": "string",
              "name": "osPlatform",
              "type": "string"
            },
            {
              "internalType": "string",
              "name": "osVersion",
              "type": "string"
            },
            {
              "internalType": "string",
              "name": "osRelease",
              "type": "string"
            },
            {
              "internalType": "string",
              "name": "macAddress",
              "type": "string"
            },
            {
              "internalType": "string",
              "name": "firmwareVersion",
              "type": "string"
            },
            {
              "internalType": "string",
              "name": "userPassPhrase",
              "type": "string"
            },
            {
              "internalType": "string",
              "name": "uuID",
              "type": "string"
            }
          ],
          "internalType": "struct DeviceIntegrity.StaticDevice",
          "name": "staticParams",
          "type": "tuple"
        },
        {
          "components": [
            {
              "internalType": "uint256",
              "name": "minAvailableMemory",
              "type": "uint256"
            },
            {
              "internalType": "uint256",
              "name": "maxAvailableMemory",
              "type": "uint256"
            },
            {
              "internalType": "uint256",
              "name": "minCpuUsage",
              "type": "uint256"
            },
            {
              "internalType": "uint256",
              "name": "maxCpuUsage",
              "type": "uint256"
            },
            {
              "internalType": "uint256",
              "name": "minCpuPercentage",
              "type": "uint256"
            },
            {
              "internalType": "uint256",
              "name": "maxCpuPercentage",
              "type": "uint256"
            },
            {
              "internalType": "uint256",
              "name": "minNetworkBandwidth",
              "type": "uint256"
            },
            {
              "internalType": "uint256",
              "name": "maxNetworkBandwidth",
              "type": "uint256"
            }
          ],
          "internalType": "struct DeviceIntegrity.DynamicParameters",
          "name": "dynamicParams",
          "type": "tuple"
        }
      ],
      "stateMutability": "view",
      "type": "function"
    },
    {
      "inputs": [
        {
          "internalType": "bytes32",
          "name": "deviceId",
          "type": "bytes32"
        },
        {
          "components": [
            {
              "internalType": "string",
              "name": "networkInterface",
              "type": "string"
            },
            {
              "internalType": "string",
              "name": "hostname",
              "type": "string"
            },
            {
              "internalType": "string",
              "name": "osArchitecture",
              "type": "string"
            },
            {
              "internalType": "string",
              "name": "logicalCPU",
              "type": "string"
            },
            {
              "internalType": "string",
              "name": "osPlatform",
              "type": "string"
            },
            {
              "internalType": "string",
              "name": "osVersion",
              "type": "string"
            },
            {
              "internalType": "string",
              "name": "osRelease",
              "type": "string"
            },
            {
              "internalType": "string",
              "name": "macAddress",
              "type": "string"
            },
            {
              "internalType": "string",
              "name": "firmwareVersion",
              "type": "string"
            },
            {
              "internalType": "string",
              "name": "userPassPhrase",
              "type": "string"
            },
            {
              "internalType": "string",
              "name": "uuID",
              "type": "string"
            }
          ],
          "internalType": "struct DeviceIntegrity.StaticDevice",
          "name": "staticParams",
          "type": "tuple"
        },
        {
          "components": [
            {
              "internalType": "uint256",
              "name": "minAvailableMemory",
              "type": "uint256"
            },
            {
              "internalType": "uint256",
              "name": "maxAvailableMemory",
              "type": "uint256"
            },
            {
              "internalType": "uint256",
              "name": "minCpuUsage",
              "type": "uint256"
            },
            {
              "internalType": "uint256",
              "name": "maxCpuUsage",
              "type": "uint256"
            },
            {
              "internalType": "uint256",
              "name": "minCpuPercentage",
              "type": "uint256"
            },
            {
              "internalType": "uint256",
              "name": "maxCpuPercentage",
              "type": "uint256"
            },
            {
              "internalType": "uint256",
              "name": "minNetworkBandwidth",
              "type": "uint256"
            },
            {
              "internalType": "uint256",
              "name": "maxNetworkBandwidth",
              "type": "uint256"
            }
          ],
          "internalType": "struct DeviceIntegrity.DynamicParameters",
          "name": "dynamicParams",
          "type": "tuple"
        }
      ],
      "name": "generateDeviceDNA",
      "outputs": [
        {
          "internalType": "bytes32",
          "name": "",
          "type": "bytes32"
        }
      ],
      "stateMutability": "nonpayable",
      "type": "function"
    },
    {
      "inputs": [],
      "name": "getDevices",
      "outputs": [
        {
          "components": [
            {
              "components": [
                {
                  "internalType": "string",
                  "name": "networkInterface",
                  "type": "string"
                },
                {
                  "internalType": "string",
                  "name": "hostname",
                  "type": "string"
                },
                {
                  "internalType": "string",
                  "name": "osArchitecture",
                  "type": "string"
                },
                {
                  "internalType": "string",
                  "name": "logicalCPU",
                  "type": "string"
                },
                {
                  "internalType": "string",
                  "name": "osPlatform",
                  "type": "string"
                },
                {
                  "internalType": "string",
                  "name": "osVersion",
                  "type": "string"
                },
                {
                  "internalType": "string",
                  "name": "osRelease",
                  "type": "string"
                },
                {
                  "internalType": "string",
                  "name": "macAddress",
                  "type": "string"
                },
                {
                  "internalType": "string",
                  "name": "firmwareVersion",
                  "type": "string"
                },
                {
                  "internalType": "string",
                  "name": "userPassPhrase",
                  "type": "string"
                },
                {
                  "internalType": "string",
                  "name": "uuID",
                  "type": "string"
                }
              ],
              "internalType": "struct DeviceIntegrity.StaticDevice",
              "name": "staticParams",
              "type": "tuple"
            },
            {
              "components": [
                {
                  "internalType": "uint256",
                  "name": "minAvailableMemory",
                  "type": "uint256"
                },
                {
                  "internalType": "uint256",
                  "name": "maxAvailableMemory",
                  "type": "uint256"
                },
                {
                  "internalType": "uint256",
                  "name": "minCpuUsage",
                  "type": "uint256"
                },
                {
                  "internalType": "uint256",
                  "name": "maxCpuUsage",
                  "type": "uint256"
                },
                {
                  "internalType": "uint256",
                  "name": "minCpuPercentage",
                  "type": "uint256"
                },
                {
                  "internalType": "uint256",
                  "name": "maxCpuPercentage",
                  "type": "uint256"
                },
                {
                  "internalType": "uint256",
                  "name": "minNetworkBandwidth",
                  "type": "uint256"
                },
                {
                  "internalType": "uint256",
                  "name": "maxNetworkBandwidth",
                  "type": "uint256"
                }
              ],
              "internalType": "struct DeviceIntegrity.DynamicParameters",
              "name": "dynamicParams",
              "type": "tuple"
            }
          ],
          "internalType": "struct DeviceIntegrity.DeviceInfo[]",
          "name": "",
          "type": "tuple[]"
        }
      ],
      "stateMutability": "view",
      "type": "function"
    },
    {
      "inputs": [
        {
          "internalType": "bytes32",
          "name": "deviceId",
          "type": "bytes32"
        },
        {
          "components": [
            {
              "internalType": "string",
              "name": "networkInterface",
              "type": "string"
            },
            {
              "internalType": "string",
              "name": "hostname",
              "type": "string"
            },
            {
              "internalType": "string",
              "name": "osArchitecture",
              "type": "string"
            },
            {
              "internalType": "string",
              "name": "logicalCPU",
              "type": "string"
            },
            {
              "internalType": "string",
              "name": "osPlatform",
              "type": "string"
            },
            {
              "internalType": "string",
              "name": "osVersion",
              "type": "string"
            },
            {
              "internalType": "string",
              "name": "osRelease",
              "type": "string"
            },
            {
              "internalType": "string",
              "name": "macAddress",
              "type": "string"
            },
            {
              "internalType": "string",
              "name": "firmwareVersion",
              "type": "string"
            },
            {
              "internalType": "string",
              "name": "userPassPhrase",
              "type": "string"
            },
            {
              "internalType": "string",
              "name": "uuID",
              "type": "string"
            }
          ],
          "internalType": "struct DeviceIntegrity.StaticDevice",
          "name": "staticParams",
          "type": "tuple"
        },
        {
          "components": [
            {
              "internalType": "uint256",
              "name": "minAvailableMemory",
              "type": "uint256"
            },
            {
              "internalType": "uint256",
              "name": "maxAvailableMemory",
              "type": "uint256"
            },
            {
              "internalType": "uint256",
              "name": "minCpuUsage",
              "type": "uint256"
            },
            {
              "internalType": "uint256",
              "name": "maxCpuUsage",
              "type": "uint256"
            },
            {
              "internalType": "uint256",
              "name": "minCpuPercentage",
              "type": "uint256"
            },
            {
              "internalType": "uint256",
              "name": "maxCpuPercentage",
              "type": "uint256"
            },
            {
              "internalType": "uint256",
              "name": "minNetworkBandwidth",
              "type": "uint256"
            },
            {
              "internalType": "uint256",
              "name": "maxNetworkBandwidth",
              "type": "uint256"
            }
          ],
          "internalType": "struct DeviceIntegrity.DynamicParameters",
          "name": "dynamicParams",
          "type": "tuple"
        }
      ],
      "name": "storeDevice",
      "outputs": [],
      "stateMutability": "nonpayable",
      "type": "function"
    },
    {
      "inputs": [
        {
          "internalType": "bytes32[]",
          "name": "deviceIds",
          "type": "bytes32[]"
        },
        {
          "components": [
            {
              "internalType": "string",
              "name": "networkInterface",
              "type": "string"
            },
            {
              "internalType": "string",
              "name": "hostname",
              "type": "string"
            },
            {
              "internalType": "string",
              "name": "osArchitecture",
              "type": "string"
            },
            {
              "internalType": "string",
              "name": "logicalCPU",
              "type": "string"
            },
            {
              "internalType": "string",
              "name": "osPlatform",
              "type": "string"
            },
            {
              "internalType": "string",
              "name": "osVersion",
              "type": "string"
            },
            {
              "internalType": "string",
              "name": "osRelease",
              "type": "string"
            },
            {
              "internalType": "string",
              "name": "macAddress",
              "type": "string"
            },
            {
              "internalType": "string",
              "name": "firmwareVersion",
              "type": "string"
            },
            {
              "internalType": "string",
              "name": "userPassPhrase",
              "type": "string"
            },
            {
              "internalType": "string",
              "name": "uuID",
              "type": "string"
            }
          ],
          "internalType": "struct DeviceIntegrity.StaticDevice[]",
          "name": "staticParams",
          "type": "tuple[]"
        },
        {
          "components": [
            {
              "internalType": "uint256",
              "name": "minAvailableMemory",
              "type": "uint256"
            },
            {
              "internalType": "uint256",
              "name": "maxAvailableMemory",
              "type": "uint256"
            },
            {
              "internalType": "uint256",
              "name": "minCpuUsage",
              "type": "uint256"
            },
            {
              "internalType": "uint256",
              "name": "maxCpuUsage",
              "type": "uint256"
            },
            {
              "internalType": "uint256",
              "name": "minCpuPercentage",
              "type": "uint256"
            },
            {
              "internalType": "uint256",
              "name": "maxCpuPercentage",
              "type": "uint256"
            },
            {
              "internalType": "uint256",
              "name": "minNetworkBandwidth",
              "type": "uint256"
            },
            {
              "internalType": "uint256",
              "name": "maxNetworkBandwidth",
              "type": "uint256"
            }
          ],
          "internalType": "struct DeviceIntegrity.DynamicParameters[]",
          "name": "dynamicParams",
          "type": "tuple[]"
        }
      ],
      "name": "storeDevices",
      "outputs": [],
      "stateMutability": "nonpayable",
      "type": "function"
    },
    {
      "inputs": [
        {
          "internalType": "bytes32",
          "name": "deviceId",
          "type": "bytes32"
        },
        {
          "internalType": "bytes32",
          "name": "_deviceDNA",
          "type": "bytes32"
        }
      ],
      "name": "verifyDeviceDNA",
      "outputs": [
        {
          "internalType": "bool",
          "name": "",
          "type": "bool"
        }
      ],
      "stateMutability": "view",
      "type": "function"
    }
  ],
  "bytecode": "0x608060405234801561001057600080fd5b50613695806100206000396000f3fe608060405234801561001057600080fd5b50600436106100935760003560e01c80637153c933116100665780637153c9331461014557806397e90fba14610161578063c7d146971461017d578063d611d6c8146101ad578063fd43d5c1146101cb57610093565b80630bd4a9ed146100985780630c19a13c146100c85780631b50ef0b146100f95780632ad828d614610129575b600080fd5b6100b260048036038101906100ad9190611fa9565b6101fb565b6040516100bf9190611ff1565b60405180910390f35b6100e260048036038101906100dd9190611fa9565b61021b565b6040516100f092919061228c565b60405180910390f35b610113600480360381019061010e91906122bd565b6108eb565b6040516101209190611ff1565b60405180910390f35b610143600480360381019061013e9190612720565b61090b565b005b61015f600480360381019061015a9190612859565b61116a565b005b61017b60048036038101906101769190612b37565b61156a565b005b61019760048036038101906101929190612859565b611639565b6040516101a49190612bed565b60405180910390f35b6101b5611763565b6040516101c29190612edf565b60405180910390f35b6101e560048036038101906101e09190611fa9565b611e82565b6040516101f29190612bed565b60405180910390f35b60026020528060005260406000206000915054906101000a900460ff1681565b6000602052806000526040600020600091509050806000016040518061016001604052908160008201805461024f90612f30565b80601f016020809104026020016040519081016040528092919081815260200182805461027b90612f30565b80156102c85780601f1061029d576101008083540402835291602001916102c8565b820191906000526020600020905b8154815290600101906020018083116102ab57829003601f168201915b505050505081526020016001820180546102e190612f30565b80601f016020809104026020016040519081016040528092919081815260200182805461030d90612f30565b801561035a5780601f1061032f5761010080835404028352916020019161035a565b820191906000526020600020905b81548152906001019060200180831161033d57829003601f168201915b5050505050815260200160028201805461037390612f30565b80601f016020809104026020016040519081016040528092919081815260200182805461039f90612f30565b80156103ec5780601f106103c1576101008083540402835291602001916103ec565b820191906000526020600020905b8154815290600101906020018083116103cf57829003601f168201915b5050505050815260200160038201805461040590612f30565b80601f016020809104026020016040519081016040528092919081815260200182805461043190612f30565b801561047e5780601f106104535761010080835404028352916020019161047e565b820191906000526020600020905b81548152906001019060200180831161046157829003601f168201915b5050505050815260200160048201805461049790612f30565b80601f01602080910402602001604051908101604052809291908181526020018280546104c390612f30565b80156105105780601f106104e557610100808354040283529160200191610510565b820191906000526020600020905b8154815290600101906020018083116104f357829003601f168201915b5050505050815260200160058201805461052990612f30565b80601f016020809104026020016040519081016040528092919081815260200182805461055590612f30565b80156105a25780601f10610577576101008083540402835291602001916105a2565b820191906000526020600020905b81548152906001019060200180831161058557829003601f168201915b505050505081526020016006820180546105bb90612f30565b80601f01602080910402602001604051908101604052809291908181526020018280546105e790612f30565b80156106345780601f1061060957610100808354040283529160200191610634565b820191906000526020600020905b81548152906001019060200180831161061757829003601f168201915b5050505050815260200160078201805461064d90612f30565b80601f016020809104026020016040519081016040528092919081815260200182805461067990612f30565b80156106c65780601f1061069b576101008083540402835291602001916106c6565b820191906000526020600020905b8154815290600101906020018083116106a957829003601f168201915b505050505081526020016008820180546106df90612f30565b80601f016020809104026020016040519081016040528092919081815260200182805461070b90612f30565b80156107585780601f1061072d57610100808354040283529160200191610758565b820191906000526020600020905b81548152906001019060200180831161073b57829003601f168201915b5050505050815260200160098201805461077190612f30565b80601f016020809104026020016040519081016040528092919081815260200182805461079d90612f30565b80156107ea5780601f106107bf576101008083540402835291602001916107ea565b820191906000526020600020905b8154815290600101906020018083116107cd57829003601f168201915b50505050508152602001600a8201805461080390612f30565b80601f016020809104026020016040519081016040528092919081815260200182805461082f90612f30565b801561087c5780601f106108515761010080835404028352916020019161087c565b820191906000526020600020905b81548152906001019060200180831161085f57829003601f168201915b5050505050815250509080600b016040518061010001604052908160008201548152602001600182015481526020016002820154815260200160038201548152602001600482015481526020016005820154815260200160068201548152602001600782015481525050905082565b600060016000848152602001908152602001600020548214905092915050565b6002600084815260200190815260200160002060009054906101000a900460ff1661096b576040517f08c379a000000000000000000000000000000000000000000000000000000000815260040161096290612fbe565b60405180910390fd5b600080600085815260200190815260200160002060405180604001604052908160008201604051806101600160405290816000820180546109ab90612f30565b80601f01602080910402602001604051908101604052809291908181526020018280546109d790612f30565b8015610a245780601f106109f957610100808354040283529160200191610a24565b820191906000526020600020905b815481529060010190602001808311610a0757829003601f168201915b50505050508152602001600182018054610a3d90612f30565b80601f0160208091040260200160405190810160405280929190818152602001828054610a6990612f30565b8015610ab65780601f10610a8b57610100808354040283529160200191610ab6565b820191906000526020600020905b815481529060010190602001808311610a9957829003601f168201915b50505050508152602001600282018054610acf90612f30565b80601f0160208091040260200160405190810160405280929190818152602001828054610afb90612f30565b8015610b485780601f10610b1d57610100808354040283529160200191610b48565b820191906000526020600020905b815481529060010190602001808311610b2b57829003601f168201915b50505050508152602001600382018054610b6190612f30565b80601f0160208091040260200160405190810160405280929190818152602001828054610b8d90612f30565b8015610bda5780601f10610baf57610100808354040283529160200191610bda565b820191906000526020600020905b815481529060010190602001808311610bbd57829003601f168201915b50505050508152602001600482018054610bf390612f30565b80601f0160208091040260200160405190810160405280929190818152602001828054610c1f90612f30565b8015610c6c5780601f10610c4157610100808354040283529160200191610c6c565b820191906000526020600020905b815481529060010190602001808311610c4f57829003601f168201915b50505050508152602001600582018054610c8590612f30565b80601f0160208091040260200160405190810160405280929190818152602001828054610cb190612f30565b8015610cfe5780601f10610cd357610100808354040283529160200191610cfe565b820191906000526020600020905b815481529060010190602001808311610ce157829003601f168201915b50505050508152602001600682018054610d1790612f30565b80601f0160208091040260200160405190810160405280929190818152602001828054610d4390612f30565b8015610d905780601f10610d6557610100808354040283529160200191610d90565b820191906000526020600020905b815481529060010190602001808311610d7357829003601f168201915b50505050508152602001600782018054610da990612f30565b80601f0160208091040260200160405190810160405280929190818152602001828054610dd590612f30565b8015610e225780601f10610df757610100808354040283529160200191610e22565b820191906000526020600020905b815481529060010190602001808311610e0557829003601f168201915b50505050508152602001600882018054610e3b90612f30565b80601f0160208091040260200160405190810160405280929190818152602001828054610e6790612f30565b8015610eb45780601f10610e8957610100808354040283529160200191610eb4565b820191906000526020600020905b815481529060010190602001808311610e9757829003601f168201915b50505050508152602001600982018054610ecd90612f30565b80601f0160208091040260200160405190810160405280929190818152602001828054610ef990612f30565b8015610f465780601f10610f1b57610100808354040283529160200191610f46565b820191906000526020600020905b815481529060010190602001808311610f2957829003601f168201915b50505050508152602001600a82018054610f5f90612f30565b80601f0160208091040260200160405190810160405280929190818152602001828054610f8b90612f30565b8015610fd85780601f10610fad57610100808354040283529160200191610fd8565b820191906000526020600020905b815481529060010190602001808311610fbb57829003601f168201915b5050505050815250508152602001600b8201604051806101000160405290816000820154815260200160018201548152602001600282015481526020016003820154815260200160048201548152602001600582015481526020016006820154815260200160078201548152505081525050905060008160200151600001518360000151101580156110765750816020015160200151836000015111155b801561108e5750816020015160400151836020015110155b80156110a65750816020015160600151836020015111155b80156110be5750816020015160800151836040015110155b80156110d65750816020015160a00151836040015111155b80156110ee5750816020015160c00151836060015110155b80156111065750816020015160e00151836060015111155b1561112c57600061111c86868560200151611639565b905061112886826108eb565b9150505b7f80ced4cad14928c9a0b1d2a29a3dc1fda04d2d8d47d10ef8d4fa3f97787c6efc8160405161115b9190611ff1565b60405180910390a15050505050565b6002600084815260200190815260200160002060009054906101000a900460ff16156111cb576040517f08c379a00000000000000000000000000000000000000000000000000000000081526004016111c29061302a565b60405180910390fd5b6111d3611e9a565b82816000018190525081816020018190525080600080868152602001908152602001600020600082015181600001600082015181600001908161121691906131f6565b50602082015181600101908161122c91906131f6565b50604082015181600201908161124291906131f6565b50606082015181600301908161125891906131f6565b50608082015181600401908161126e91906131f6565b5060a082015181600501908161128491906131f6565b5060c082015181600601908161129a91906131f6565b5060e08201518160070190816112b091906131f6565b506101008201518160080190816112c791906131f6565b506101208201518160090190816112de91906131f6565b5061014082015181600a0190816112f591906131f6565b505050602082015181600b01600082015181600001556020820151816001015560408201518160020155606082015181600301556080820151816004015560a0820151816005015560c0820151816006015560e0820151816007015550509050507fa6ca3ae6829f2c8fd5591d8438f03568a9e9b9ea03e4ab802f1d5256e5dbfe5f816040516113859190613306565b60405180910390a1600381908060018154018082558091505060019003906000526020600020906013020160009091909190915060008201518160000160008201518160000190816113d791906131f6565b5060208201518160010190816113ed91906131f6565b50604082015181600201908161140391906131f6565b50606082015181600301908161141991906131f6565b50608082015181600401908161142f91906131f6565b5060a082015181600501908161144591906131f6565b5060c082015181600601908161145b91906131f6565b5060e082015181600701908161147191906131f6565b5061010082015181600801908161148891906131f6565b5061012082015181600901908161149f91906131f6565b5061014082015181600a0190816114b691906131f6565b505050602082015181600b01600082015181600001556020820151816001015560408201518160020155606082015181600301556080820151816004015560a0820151816005015560c0820151816006015560e0820151816007015550505050611521848484611639565b600160008681526020019081526020016000208190555060016002600086815260200190815260200160002060006101000a81548160ff02191690831515021790555050505050565b8151835114801561157c575080518351145b6115bb576040517f08c379a00000000000000000000000000000000000000000000000000000000081526004016115b290613374565b60405180910390fd5b60005b8351811015611633576116208482815181106115dd576115dc613394565b5b60200260200101518483815181106115f8576115f7613394565b5b602002602001015184848151811061161357611612613394565b5b602002602001015161116a565b808061162b906133f2565b9150506115be565b50505050565b600080836000015184602001518560400151866060015187608001518860a001518960c001518a60e001518b61010001518c61012001518d61014001516040516020016116909b9a99989796959493929190613476565b604051602081830303815290604052905080836000015184602001518560400151866060015187608001518860a001518960c001518a60e001516040516020016116e299989796959493929190613577565b604051602081830303815290604052905060008186604051602001611708929190613637565b6040516020818303038152906040528051906020012090507f57e8ac5552627424c13036998274153e7028596f1f2f099e36bfb898492dc6eb8160405161174f9190612bed565b60405180910390a180925050509392505050565b60606003805480602002602001604051908101604052809291908181526020016000905b82821015611e79578382906000526020600020906013020160405180604001604052908160008201604051806101600160405290816000820180546117cb90612f30565b80601f01602080910402602001604051908101604052809291908181526020018280546117f790612f30565b80156118445780601f1061181957610100808354040283529160200191611844565b820191906000526020600020905b81548152906001019060200180831161182757829003601f168201915b5050505050815260200160018201805461185d90612f30565b80601f016020809104026020016040519081016040528092919081815260200182805461188990612f30565b80156118d65780601f106118ab576101008083540402835291602001916118d6565b820191906000526020600020905b8154815290600101906020018083116118b957829003601f168201915b505050505081526020016002820180546118ef90612f30565b80601f016020809104026020016040519081016040528092919081815260200182805461191b90612f30565b80156119685780601f1061193d57610100808354040283529160200191611968565b820191906000526020600020905b81548152906001019060200180831161194b57829003601f168201915b5050505050815260200160038201805461198190612f30565b80601f01602080910402602001604051908101604052809291908181526020018280546119ad90612f30565b80156119fa5780601f106119cf576101008083540402835291602001916119fa565b820191906000526020600020905b8154815290600101906020018083116119dd57829003601f168201915b50505050508152602001600482018054611a1390612f30565b80601f0160208091040260200160405190810160405280929190818152602001828054611a3f90612f30565b8015611a8c5780601f10611a6157610100808354040283529160200191611a8c565b820191906000526020600020905b815481529060010190602001808311611a6f57829003601f168201915b50505050508152602001600582018054611aa590612f30565b80601f0160208091040260200160405190810160405280929190818152602001828054611ad190612f30565b8015611b1e5780601f10611af357610100808354040283529160200191611b1e565b820191906000526020600020905b815481529060010190602001808311611b0157829003601f168201915b50505050508152602001600682018054611b3790612f30565b80601f0160208091040260200160405190810160405280929190818152602001828054611b6390612f30565b8015611bb05780601f10611b8557610100808354040283529160200191611bb0565b820191906000526020600020905b815481529060010190602001808311611b9357829003601f168201915b50505050508152602001600782018054611bc990612f30565b80601f0160208091040260200160405190810160405280929190818152602001828054611bf590612f30565b8015611c425780601f10611c1757610100808354040283529160200191611c42565b820191906000526020600020905b815481529060010190602001808311611c2557829003601f168201915b50505050508152602001600882018054611c5b90612f30565b80601f0160208091040260200160405190810160405280929190818152602001828054611c8790612f30565b8015611cd45780601f10611ca957610100808354040283529160200191611cd4565b820191906000526020600020905b815481529060010190602001808311611cb757829003601f168201915b50505050508152602001600982018054611ced90612f30565b80601f0160208091040260200160405190810160405280929190818152602001828054611d1990612f30565b8015611d665780601f10611d3b57610100808354040283529160200191611d66565b820191906000526020600020905b815481529060010190602001808311611d4957829003601f168201915b50505050508152602001600a82018054611d7f90612f30565b80601f0160208091040260200160405190810160405280929190818152602001828054611dab90612f30565b8015611df85780601f10611dcd57610100808354040283529160200191611df8565b820191906000526020600020905b815481529060010190602001808311611ddb57829003601f168201915b5050505050815250508152602001600b820160405180610100016040529081600082015481526020016001820154815260200160028201548152602001600382015481526020016004820154815260200160058201548152602001600682015481526020016007820154815250508152505081526020019060010190611787565b50505050905090565b60016020528060005260406000206000915090505481565b6040518060400160405280611ead611ec0565b8152602001611eba611f1a565b81525090565b60405180610160016040528060608152602001606081526020016060815260200160608152602001606081526020016060815260200160608152602001606081526020016060815260200160608152602001606081525090565b60405180610100016040528060008152602001600081526020016000815260200160008152602001600081526020016000815260200160008152602001600081525090565b6000604051905090565b600080fd5b600080fd5b6000819050919050565b611f8681611f73565b8114611f9157600080fd5b50565b600081359050611fa381611f7d565b92915050565b600060208284031215611fbf57611fbe611f69565b5b6000611fcd84828501611f94565b91505092915050565b60008115159050919050565b611feb81611fd6565b82525050565b60006020820190506120066000830184611fe2565b92915050565b600081519050919050565b600082825260208201905092915050565b60005b8381101561204657808201518184015260208101905061202b565b60008484015250505050565b6000601f19601f8301169050919050565b600061206e8261200c565b6120788185612017565b9350612088818560208601612028565b61209181612052565b840191505092915050565b60006101608301600083015184820360008601526120ba8282612063565b915050602083015184820360208601526120d48282612063565b915050604083015184820360408601526120ee8282612063565b915050606083015184820360608601526121088282612063565b915050608083015184820360808601526121228282612063565b91505060a083015184820360a086015261213c8282612063565b91505060c083015184820360c08601526121568282612063565b91505060e083015184820360e08601526121708282612063565b91505061010083015184820361010086015261218c8282612063565b9150506101208301518482036101208601526121a88282612063565b9150506101408301518482036101408601526121c48282612063565b9150508091505092915050565b6000819050919050565b6121e4816121d1565b82525050565b6101008201600082015161220160008501826121db565b50602082015161221460208501826121db565b50604082015161222760408501826121db565b50606082015161223a60608501826121db565b50608082015161224d60808501826121db565b5060a082015161226060a08501826121db565b5060c082015161227360c08501826121db565b5060e082015161228660e08501826121db565b50505050565b60006101208201905081810360008301526122a7818561209c565b90506122b660208301846121ea565b9392505050565b600080604083850312156122d4576122d3611f69565b5b60006122e285828601611f94565b92505060206122f385828601611f94565b9150509250929050565b600080fd5b7f4e487b7100000000000000000000000000000000000000000000000000000000600052604160045260246000fd5b61233a82612052565b810181811067ffffffffffffffff8211171561235957612358612302565b5b80604052505050565b600061236c611f5f565b90506123788282612331565b919050565b600080fd5b600080fd5b600080fd5b600067ffffffffffffffff8211156123a7576123a6612302565b5b6123b082612052565b9050602081019050919050565b82818337600083830152505050565b60006123df6123da8461238c565b612362565b9050828152602081018484840111156123fb576123fa612387565b5b6124068482856123bd565b509392505050565b600082601f83011261242357612422612382565b5b81356124338482602086016123cc565b91505092915050565b60006101608284031215612453576124526122fd565b5b61245e610160612362565b9050600082013567ffffffffffffffff81111561247e5761247d61237d565b5b61248a8482850161240e565b600083015250602082013567ffffffffffffffff8111156124ae576124ad61237d565b5b6124ba8482850161240e565b602083015250604082013567ffffffffffffffff8111156124de576124dd61237d565b5b6124ea8482850161240e565b604083015250606082013567ffffffffffffffff81111561250e5761250d61237d565b5b61251a8482850161240e565b606083015250608082013567ffffffffffffffff81111561253e5761253d61237d565b5b61254a8482850161240e565b60808301525060a082013567ffffffffffffffff81111561256e5761256d61237d565b5b61257a8482850161240e565b60a08301525060c082013567ffffffffffffffff81111561259e5761259d61237d565b5b6125aa8482850161240e565b60c08301525060e082013567ffffffffffffffff8111156125ce576125cd61237d565b5b6125da8482850161240e565b60e08301525061010082013567ffffffffffffffff8111156125ff576125fe61237d565b5b61260b8482850161240e565b6101008301525061012082013567ffffffffffffffff8111156126315761263061237d565b5b61263d8482850161240e565b6101208301525061014082013567ffffffffffffffff8111156126635761266261237d565b5b61266f8482850161240e565b6101408301525092915050565b612685816121d1565b811461269057600080fd5b50565b6000813590506126a28161267c565b92915050565b6000608082840312156126be576126bd6122fd565b5b6126c86080612362565b905060006126d884828501612693565b60008301525060206126ec84828501612693565b602083015250604061270084828501612693565b604083015250606061271484828501612693565b60608301525092915050565b600080600060c0848603121561273957612738611f69565b5b600061274786828701611f94565b935050602084013567ffffffffffffffff81111561276857612767611f6e565b5b6127748682870161243c565b9250506040612785868287016126a8565b9150509250925092565b600061010082840312156127a6576127a56122fd565b5b6127b1610100612362565b905060006127c184828501612693565b60008301525060206127d584828501612693565b60208301525060406127e984828501612693565b60408301525060606127fd84828501612693565b606083015250608061281184828501612693565b60808301525060a061282584828501612693565b60a08301525060c061283984828501612693565b60c08301525060e061284d84828501612693565b60e08301525092915050565b6000806000610140848603121561287357612872611f69565b5b600061288186828701611f94565b935050602084013567ffffffffffffffff8111156128a2576128a1611f6e565b5b6128ae8682870161243c565b92505060406128bf8682870161278f565b9150509250925092565b600067ffffffffffffffff8211156128e4576128e3612302565b5b602082029050602081019050919050565b600080fd5b600061290d612908846128c9565b612362565b905080838252602082019050602084028301858111156129305761292f6128f5565b5b835b8181101561295957806129458882611f94565b845260208401935050602081019050612932565b5050509392505050565b600082601f83011261297857612977612382565b5b81356129888482602086016128fa565b91505092915050565b600067ffffffffffffffff8211156129ac576129ab612302565b5b602082029050602081019050919050565b60006129d06129cb84612991565b612362565b905080838252602082019050602084028301858111156129f3576129f26128f5565b5b835b81811015612a3a57803567ffffffffffffffff811115612a1857612a17612382565b5b808601612a25898261243c565b855260208501945050506020810190506129f5565b5050509392505050565b600082601f830112612a5957612a58612382565b5b8135612a698482602086016129bd565b91505092915050565b600067ffffffffffffffff821115612a8d57612a8c612302565b5b602082029050602081019050919050565b6000612ab1612aac84612a72565b612362565b9050808382526020820190506101008402830185811115612ad557612ad46128f5565b5b835b81811015612aff5780612aea888261278f565b84526020840193505061010081019050612ad7565b5050509392505050565b600082601f830112612b1e57612b1d612382565b5b8135612b2e848260208601612a9e565b91505092915050565b600080600060608486031215612b5057612b4f611f69565b5b600084013567ffffffffffffffff811115612b6e57612b6d611f6e565b5b612b7a86828701612963565b935050602084013567ffffffffffffffff811115612b9b57612b9a611f6e565b5b612ba786828701612a44565b925050604084013567ffffffffffffffff811115612bc857612bc7611f6e565b5b612bd486828701612b09565b9150509250925092565b612be781611f73565b82525050565b6000602082019050612c026000830184612bde565b92915050565b600081519050919050565b600082825260208201905092915050565b6000819050602082019050919050565b6000610160830160008301518482036000860152612c528282612063565b91505060208301518482036020860152612c6c8282612063565b91505060408301518482036040860152612c868282612063565b91505060608301518482036060860152612ca08282612063565b91505060808301518482036080860152612cba8282612063565b91505060a083015184820360a0860152612cd48282612063565b91505060c083015184820360c0860152612cee8282612063565b91505060e083015184820360e0860152612d088282612063565b915050610100830151848203610100860152612d248282612063565b915050610120830151848203610120860152612d408282612063565b915050610140830151848203610140860152612d5c8282612063565b9150508091505092915050565b61010082016000820151612d8060008501826121db565b506020820151612d9360208501826121db565b506040820151612da660408501826121db565b506060820151612db960608501826121db565b506080820151612dcc60808501826121db565b5060a0820151612ddf60a08501826121db565b5060c0820151612df260c08501826121db565b5060e0820151612e0560e08501826121db565b50505050565b6000610120830160008301518482036000860152612e298282612c34565b9150506020830151612e3e6020860182612d69565b508091505092915050565b6000612e558383612e0b565b905092915050565b6000602082019050919050565b6000612e7582612c08565b612e7f8185612c13565b935083602082028501612e9185612c24565b8060005b85811015612ecd5784840389528151612eae8582612e49565b9450612eb983612e5d565b925060208a01995050600181019050612e95565b50829750879550505050505092915050565b60006020820190508181036000830152612ef98184612e6a565b905092915050565b7f4e487b7100000000000000000000000000000000000000000000000000000000600052602260045260246000fd5b60006002820490506001821680612f4857607f821691505b602082108103612f5b57612f5a612f01565b5b50919050565b600082825260208201905092915050565b7f44657669636520494420646f6573206e6f742065786973740000000000000000600082015250565b6000612fa8601883612f61565b9150612fb382612f72565b602082019050919050565b60006020820190508181036000830152612fd781612f9b565b9050919050565b7f44657669636520494420616c7265616479206578697374730000000000000000600082015250565b6000613014601883612f61565b915061301f82612fde565b602082019050919050565b6000602082019050818103600083015261304381613007565b9050919050565b60008190508160005260206000209050919050565b60006020601f8301049050919050565b600082821b905092915050565b6000600883026130ac7fffffffffffffffffffffffffffffffffffffffffffffffffffffffffffffffff8261306f565b6130b6868361306f565b95508019841693508086168417925050509392505050565b6000819050919050565b60006130f36130ee6130e9846121d1565b6130ce565b6121d1565b9050919050565b6000819050919050565b61310d836130d8565b613121613119826130fa565b84845461307c565b825550505050565b600090565b613136613129565b613141818484613104565b505050565b5b818110156131655761315a60008261312e565b600181019050613147565b5050565b601f8211156131aa5761317b8161304a565b6131848461305f565b81016020851015613193578190505b6131a761319f8561305f565b830182613146565b50505b505050565b600082821c905092915050565b60006131cd600019846008026131af565b1980831691505092915050565b60006131e683836131bc565b9150826002028217905092915050565b6131ff8261200c565b67ffffffffffffffff81111561321857613217612302565b5b6132228254612f30565b61322d828285613169565b600060209050601f831160018114613260576000841561324e578287015190505b61325885826131da565b8655506132c0565b601f19841661326e8661304a565b60005b8281101561329657848901518255600182019150602085019450602081019050613271565b868310156132b357848901516132af601f8916826131bc565b8355505b6001600288020188555050505b505050505050565b60006101208301600083015184820360008601526132e68282612c34565b91505060208301516132fb6020860182612d69565b508091505092915050565b6000602082019050818103600083015261332081846132c8565b905092915050565b7f4172726179206c656e677468206d69736d617463680000000000000000000000600082015250565b600061335e601583612f61565b915061336982613328565b602082019050919050565b6000602082019050818103600083015261338d81613351565b9050919050565b7f4e487b7100000000000000000000000000000000000000000000000000000000600052603260045260246000fd5b7f4e487b7100000000000000000000000000000000000000000000000000000000600052601160045260246000fd5b60006133fd826121d1565b91507fffffffffffffffffffffffffffffffffffffffffffffffffffffffffffffffff820361342f5761342e6133c3565b5b600182019050919050565b600081905092915050565b60006134508261200c565b61345a818561343a565b935061346a818560208601612028565b80840191505092915050565b6000613482828e613445565b915061348e828d613445565b915061349a828c613445565b91506134a6828b613445565b91506134b2828a613445565b91506134be8289613445565b91506134ca8288613445565b91506134d68287613445565b91506134e28286613445565b91506134ee8285613445565b91506134fa8284613445565b91508190509c9b505050505050505050505050565b600081519050919050565b600081905092915050565b60006135308261350f565b61353a818561351a565b935061354a818560208601612028565b80840191505092915050565b6000819050919050565b61357161356c826121d1565b613556565b82525050565b6000613583828c613525565b915061358f828b613560565b60208201915061359f828a613560565b6020820191506135af8289613560565b6020820191506135bf8288613560565b6020820191506135cf8287613560565b6020820191506135df8286613560565b6020820191506135ef8285613560565b6020820191506135ff8284613560565b6020820191508190509a9950505050505050505050565b6000819050919050565b61363161362c82611f73565b613616565b82525050565b60006136438285613525565b915061364f8284613620565b602082019150819050939250505056fea2646970667358221220f54789dc4782c6a7c4a70fae1c1f5208b02732cb1048007e4bb442da9249108764736f6c63430008120033",
  "linkReferences": {},
  "deployedLinkReferences": {}
}