{
  "_format": "hh-sol-artifact-1",
  "contractName": "DeviceIntegrity",
  "sourceName": "contracts/DeviceIntegrity.sol",
  "abi": [
    {
      "anonymous": false,
      "inputs": [
        {
          "components": [
            {
              "components": [
                {
                  "internalType": "string",
                  "name": "networkInterface",
                  "type": "string"
                },
                {
                  "internalType": "string",
                  "name": "hostname",
                  "type": "string"
                },
                {
                  "internalType": "string",
                  "name": "osArchitecture",
                  "type": "string"
                },
                {
                  "internalType": "string",
                  "name": "logicalCPU",
                  "type": "string"
                },
                {
                  "internalType": "string",
                  "name": "osPlatform",
                  "type": "string"
                },
                {
                  "internalType": "string",
                  "name": "osVersion",
                  "type": "string"
                },
                {
                  "internalType": "string",
                  "name": "osRelease",
                  "type": "string"
                },
                {
                  "internalType": "string",
                  "name": "macAddress",
                  "type": "string"
                },
                {
                  "internalType": "string",
                  "name": "firmwareVersion",
                  "type": "string"
                },
                {
                  "internalType": "string",
                  "name": "userPassPhrase",
                  "type": "string"
                },
                {
                  "internalType": "string",
                  "name": "uuID",
                  "type": "string"
                }
              ],
              "internalType": "struct DeviceIntegrity.StaticDevice",
              "name": "staticParams",
              "type": "tuple"
            },
            {
              "components": [
                {
                  "internalType": "uint256",
                  "name": "minAvailableMemory",
                  "type": "uint256"
                },
                {
                  "internalType": "uint256",
                  "name": "maxAvailableMemory",
                  "type": "uint256"
                },
                {
                  "internalType": "uint256",
                  "name": "minCpuUsage",
                  "type": "uint256"
                },
                {
                  "internalType": "uint256",
                  "name": "maxCpuUsage",
                  "type": "uint256"
                },
                {
                  "internalType": "uint256",
                  "name": "minCpuPercentage",
                  "type": "uint256"
                },
                {
                  "internalType": "uint256",
                  "name": "maxCpuPercentage",
                  "type": "uint256"
                },
                {
                  "internalType": "uint256",
                  "name": "minNetworkBandwidth",
                  "type": "uint256"
                },
                {
                  "internalType": "uint256",
                  "name": "maxNetworkBandwidth",
                  "type": "uint256"
                }
              ],
              "internalType": "struct DeviceIntegrity.DynamicParameters",
              "name": "dynamicParams",
              "type": "tuple"
            }
          ],
          "indexed": false,
          "internalType": "struct DeviceIntegrity.DeviceInfo",
          "name": "device",
          "type": "tuple"
        }
      ],
      "name": "Log",
      "type": "event"
    },
    {
      "inputs": [
        {
          "internalType": "bytes32",
          "name": "deviceId",
          "type": "bytes32"
        },
        {
          "components": [
            {
              "internalType": "string",
              "name": "networkInterface",
              "type": "string"
            },
            {
              "internalType": "string",
              "name": "hostname",
              "type": "string"
            },
            {
              "internalType": "string",
              "name": "osArchitecture",
              "type": "string"
            },
            {
              "internalType": "string",
              "name": "logicalCPU",
              "type": "string"
            },
            {
              "internalType": "string",
              "name": "osPlatform",
              "type": "string"
            },
            {
              "internalType": "string",
              "name": "osVersion",
              "type": "string"
            },
            {
              "internalType": "string",
              "name": "osRelease",
              "type": "string"
            },
            {
              "internalType": "string",
              "name": "macAddress",
              "type": "string"
            },
            {
              "internalType": "string",
              "name": "firmwareVersion",
              "type": "string"
            },
            {
              "internalType": "string",
              "name": "userPassPhrase",
              "type": "string"
            },
            {
              "internalType": "string",
              "name": "uuID",
              "type": "string"
            }
          ],
          "internalType": "struct DeviceIntegrity.StaticDevice",
          "name": "staticParams",
          "type": "tuple"
        },
        {
          "components": [
            {
              "internalType": "uint256",
              "name": "availableMemory",
              "type": "uint256"
            },
            {
              "internalType": "uint256",
              "name": "cpuUsage",
              "type": "uint256"
            },
            {
              "internalType": "uint256",
              "name": "cpuPercentage",
              "type": "uint256"
            },
            {
              "internalType": "uint256",
              "name": "networkBandwidth",
              "type": "uint256"
            }
          ],
          "internalType": "struct DeviceIntegrity.VerifyDynamicParameter",
          "name": "verifydynamicParams",
          "type": "tuple"
        }
      ],
      "name": "checkDeviceIntegrity",
      "outputs": [
        {
          "internalType": "bool",
          "name": "",
          "type": "bool"
        }
      ],
      "stateMutability": "view",
      "type": "function"
    },
    {
      "inputs": [
        {
          "internalType": "bytes32",
          "name": "",
          "type": "bytes32"
        }
      ],
      "name": "deviceDNA",
      "outputs": [
        {
          "internalType": "bytes32",
          "name": "",
          "type": "bytes32"
        }
      ],
      "stateMutability": "view",
      "type": "function"
    },
    {
      "inputs": [
        {
          "internalType": "bytes32",
          "name": "",
          "type": "bytes32"
        }
      ],
      "name": "deviceExists",
      "outputs": [
        {
          "internalType": "bool",
          "name": "",
          "type": "bool"
        }
      ],
      "stateMutability": "view",
      "type": "function"
    },
    {
      "inputs": [
        {
          "internalType": "bytes32",
          "name": "",
          "type": "bytes32"
        }
      ],
      "name": "deviceInfo",
      "outputs": [
        {
          "components": [
            {
              "internalType": "string",
              "name": "networkInterface",
              "type": "string"
            },
            {
              "internalType": "string",
              "name": "hostname",
              "type": "string"
            },
            {
              "internalType": "string",
              "name": "osArchitecture",
              "type": "string"
            },
            {
              "internalType": "string",
              "name": "logicalCPU",
              "type": "string"
            },
            {
              "internalType": "string",
              "name": "osPlatform",
              "type": "string"
            },
            {
              "internalType": "string",
              "name": "osVersion",
              "type": "string"
            },
            {
              "internalType": "string",
              "name": "osRelease",
              "type": "string"
            },
            {
              "internalType": "string",
              "name": "macAddress",
              "type": "string"
            },
            {
              "internalType": "string",
              "name": "firmwareVersion",
              "type": "string"
            },
            {
              "internalType": "string",
              "name": "userPassPhrase",
              "type": "string"
            },
            {
              "internalType": "string",
              "name": "uuID",
              "type": "string"
            }
          ],
          "internalType": "struct DeviceIntegrity.StaticDevice",
          "name": "staticParams",
          "type": "tuple"
        },
        {
          "components": [
            {
              "internalType": "uint256",
              "name": "minAvailableMemory",
              "type": "uint256"
            },
            {
              "internalType": "uint256",
              "name": "maxAvailableMemory",
              "type": "uint256"
            },
            {
              "internalType": "uint256",
              "name": "minCpuUsage",
              "type": "uint256"
            },
            {
              "internalType": "uint256",
              "name": "maxCpuUsage",
              "type": "uint256"
            },
            {
              "internalType": "uint256",
              "name": "minCpuPercentage",
              "type": "uint256"
            },
            {
              "internalType": "uint256",
              "name": "maxCpuPercentage",
              "type": "uint256"
            },
            {
              "internalType": "uint256",
              "name": "minNetworkBandwidth",
              "type": "uint256"
            },
            {
              "internalType": "uint256",
              "name": "maxNetworkBandwidth",
              "type": "uint256"
            }
          ],
          "internalType": "struct DeviceIntegrity.DynamicParameters",
          "name": "dynamicParams",
          "type": "tuple"
        }
      ],
      "stateMutability": "view",
      "type": "function"
    },
    {
      "inputs": [
        {
          "internalType": "bytes32",
          "name": "deviceId",
          "type": "bytes32"
        },
        {
          "components": [
            {
              "internalType": "string",
              "name": "networkInterface",
              "type": "string"
            },
            {
              "internalType": "string",
              "name": "hostname",
              "type": "string"
            },
            {
              "internalType": "string",
              "name": "osArchitecture",
              "type": "string"
            },
            {
              "internalType": "string",
              "name": "logicalCPU",
              "type": "string"
            },
            {
              "internalType": "string",
              "name": "osPlatform",
              "type": "string"
            },
            {
              "internalType": "string",
              "name": "osVersion",
              "type": "string"
            },
            {
              "internalType": "string",
              "name": "osRelease",
              "type": "string"
            },
            {
              "internalType": "string",
              "name": "macAddress",
              "type": "string"
            },
            {
              "internalType": "string",
              "name": "firmwareVersion",
              "type": "string"
            },
            {
              "internalType": "string",
              "name": "userPassPhrase",
              "type": "string"
            },
            {
              "internalType": "string",
              "name": "uuID",
              "type": "string"
            }
          ],
          "internalType": "struct DeviceIntegrity.StaticDevice",
          "name": "staticParams",
          "type": "tuple"
        }
      ],
      "name": "generateDeviceDNA",
      "outputs": [
        {
          "internalType": "bytes32",
          "name": "",
          "type": "bytes32"
        }
      ],
      "stateMutability": "pure",
      "type": "function"
    },
    {
      "inputs": [],
      "name": "getDevices",
      "outputs": [
        {
          "components": [
            {
              "components": [
                {
                  "internalType": "string",
                  "name": "networkInterface",
                  "type": "string"
                },
                {
                  "internalType": "string",
                  "name": "hostname",
                  "type": "string"
                },
                {
                  "internalType": "string",
                  "name": "osArchitecture",
                  "type": "string"
                },
                {
                  "internalType": "string",
                  "name": "logicalCPU",
                  "type": "string"
                },
                {
                  "internalType": "string",
                  "name": "osPlatform",
                  "type": "string"
                },
                {
                  "internalType": "string",
                  "name": "osVersion",
                  "type": "string"
                },
                {
                  "internalType": "string",
                  "name": "osRelease",
                  "type": "string"
                },
                {
                  "internalType": "string",
                  "name": "macAddress",
                  "type": "string"
                },
                {
                  "internalType": "string",
                  "name": "firmwareVersion",
                  "type": "string"
                },
                {
                  "internalType": "string",
                  "name": "userPassPhrase",
                  "type": "string"
                },
                {
                  "internalType": "string",
                  "name": "uuID",
                  "type": "string"
                }
              ],
              "internalType": "struct DeviceIntegrity.StaticDevice",
              "name": "staticParams",
              "type": "tuple"
            },
            {
              "components": [
                {
                  "internalType": "uint256",
                  "name": "minAvailableMemory",
                  "type": "uint256"
                },
                {
                  "internalType": "uint256",
                  "name": "maxAvailableMemory",
                  "type": "uint256"
                },
                {
                  "internalType": "uint256",
                  "name": "minCpuUsage",
                  "type": "uint256"
                },
                {
                  "internalType": "uint256",
                  "name": "maxCpuUsage",
                  "type": "uint256"
                },
                {
                  "internalType": "uint256",
                  "name": "minCpuPercentage",
                  "type": "uint256"
                },
                {
                  "internalType": "uint256",
                  "name": "maxCpuPercentage",
                  "type": "uint256"
                },
                {
                  "internalType": "uint256",
                  "name": "minNetworkBandwidth",
                  "type": "uint256"
                },
                {
                  "internalType": "uint256",
                  "name": "maxNetworkBandwidth",
                  "type": "uint256"
                }
              ],
              "internalType": "struct DeviceIntegrity.DynamicParameters",
              "name": "dynamicParams",
              "type": "tuple"
            }
          ],
          "internalType": "struct DeviceIntegrity.DeviceInfo[]",
          "name": "",
          "type": "tuple[]"
        }
      ],
      "stateMutability": "view",
      "type": "function"
    },
    {
      "inputs": [
        {
          "internalType": "bytes32",
          "name": "deviceId",
          "type": "bytes32"
        },
        {
          "components": [
            {
              "internalType": "string",
              "name": "networkInterface",
              "type": "string"
            },
            {
              "internalType": "string",
              "name": "hostname",
              "type": "string"
            },
            {
              "internalType": "string",
              "name": "osArchitecture",
              "type": "string"
            },
            {
              "internalType": "string",
              "name": "logicalCPU",
              "type": "string"
            },
            {
              "internalType": "string",
              "name": "osPlatform",
              "type": "string"
            },
            {
              "internalType": "string",
              "name": "osVersion",
              "type": "string"
            },
            {
              "internalType": "string",
              "name": "osRelease",
              "type": "string"
            },
            {
              "internalType": "string",
              "name": "macAddress",
              "type": "string"
            },
            {
              "internalType": "string",
              "name": "firmwareVersion",
              "type": "string"
            },
            {
              "internalType": "string",
              "name": "userPassPhrase",
              "type": "string"
            },
            {
              "internalType": "string",
              "name": "uuID",
              "type": "string"
            }
          ],
          "internalType": "struct DeviceIntegrity.StaticDevice",
          "name": "staticParams",
          "type": "tuple"
        },
        {
          "components": [
            {
              "internalType": "uint256",
              "name": "minAvailableMemory",
              "type": "uint256"
            },
            {
              "internalType": "uint256",
              "name": "maxAvailableMemory",
              "type": "uint256"
            },
            {
              "internalType": "uint256",
              "name": "minCpuUsage",
              "type": "uint256"
            },
            {
              "internalType": "uint256",
              "name": "maxCpuUsage",
              "type": "uint256"
            },
            {
              "internalType": "uint256",
              "name": "minCpuPercentage",
              "type": "uint256"
            },
            {
              "internalType": "uint256",
              "name": "maxCpuPercentage",
              "type": "uint256"
            },
            {
              "internalType": "uint256",
              "name": "minNetworkBandwidth",
              "type": "uint256"
            },
            {
              "internalType": "uint256",
              "name": "maxNetworkBandwidth",
              "type": "uint256"
            }
          ],
          "internalType": "struct DeviceIntegrity.DynamicParameters",
          "name": "dynamicParams",
          "type": "tuple"
        }
      ],
      "name": "storeDevice",
      "outputs": [],
      "stateMutability": "nonpayable",
      "type": "function"
    },
    {
      "inputs": [
        {
          "internalType": "bytes32[]",
          "name": "deviceIds",
          "type": "bytes32[]"
        },
        {
          "components": [
            {
              "internalType": "string",
              "name": "networkInterface",
              "type": "string"
            },
            {
              "internalType": "string",
              "name": "hostname",
              "type": "string"
            },
            {
              "internalType": "string",
              "name": "osArchitecture",
              "type": "string"
            },
            {
              "internalType": "string",
              "name": "logicalCPU",
              "type": "string"
            },
            {
              "internalType": "string",
              "name": "osPlatform",
              "type": "string"
            },
            {
              "internalType": "string",
              "name": "osVersion",
              "type": "string"
            },
            {
              "internalType": "string",
              "name": "osRelease",
              "type": "string"
            },
            {
              "internalType": "string",
              "name": "macAddress",
              "type": "string"
            },
            {
              "internalType": "string",
              "name": "firmwareVersion",
              "type": "string"
            },
            {
              "internalType": "string",
              "name": "userPassPhrase",
              "type": "string"
            },
            {
              "internalType": "string",
              "name": "uuID",
              "type": "string"
            }
          ],
          "internalType": "struct DeviceIntegrity.StaticDevice[]",
          "name": "staticParams",
          "type": "tuple[]"
        },
        {
          "components": [
            {
              "internalType": "uint256",
              "name": "minAvailableMemory",
              "type": "uint256"
            },
            {
              "internalType": "uint256",
              "name": "maxAvailableMemory",
              "type": "uint256"
            },
            {
              "internalType": "uint256",
              "name": "minCpuUsage",
              "type": "uint256"
            },
            {
              "internalType": "uint256",
              "name": "maxCpuUsage",
              "type": "uint256"
            },
            {
              "internalType": "uint256",
              "name": "minCpuPercentage",
              "type": "uint256"
            },
            {
              "internalType": "uint256",
              "name": "maxCpuPercentage",
              "type": "uint256"
            },
            {
              "internalType": "uint256",
              "name": "minNetworkBandwidth",
              "type": "uint256"
            },
            {
              "internalType": "uint256",
              "name": "maxNetworkBandwidth",
              "type": "uint256"
            }
          ],
          "internalType": "struct DeviceIntegrity.DynamicParameters[]",
          "name": "dynamicParams",
          "type": "tuple[]"
        }
      ],
      "name": "storeDevices",
      "outputs": [],
      "stateMutability": "nonpayable",
      "type": "function"
    },
    {
      "inputs": [
        {
          "internalType": "bytes32",
          "name": "deviceId",
          "type": "bytes32"
        },
        {
          "internalType": "bytes32",
          "name": "_deviceDNA",
          "type": "bytes32"
        }
      ],
      "name": "verifyDeviceDNA",
      "outputs": [
        {
          "internalType": "bool",
          "name": "",
          "type": "bool"
        }
      ],
      "stateMutability": "view",
      "type": "function"
    }
  ],
  "bytecode": "0x608060405234801561001057600080fd5b50613801806100206000396000f3fe608060405234801561001057600080fd5b50600436106100935760003560e01c80637153c933116100665780637153c9331461015957806397e90fba146101755780639c5ec94814610191578063d611d6c8146101c1578063fd43d5c1146101df57610093565b80630bd4a9ed146100985780630c19a13c146100c85780631b50ef0b146100f95780632ad828d614610129575b600080fd5b6100b260048036038101906100ad9190611fc9565b61020f565b6040516100bf9190612011565b60405180910390f35b6100e260048036038101906100dd9190611fc9565b61022f565b6040516100f09291906122ac565b60405180910390f35b610113600480360381019061010e91906122dd565b6108ff565b6040516101209190612011565b60405180910390f35b610143600480360381019061013e9190612740565b61091f565b6040516101509190612011565b60405180910390f35b610173600480360381019061016e9190612879565b61121b565b005b61018f600480360381019061018a9190612b57565b61161a565b005b6101ab60048036038101906101a69190612bfe565b6116e9565b6040516101b89190612c69565b60405180910390f35b6101c9611783565b6040516101d69190612f5b565b60405180910390f35b6101f960048036038101906101f49190611fc9565b611ea2565b6040516102069190612c69565b60405180910390f35b60026020528060005260406000206000915054906101000a900460ff1681565b6000602052806000526040600020600091509050806000016040518061016001604052908160008201805461026390612fac565b80601f016020809104026020016040519081016040528092919081815260200182805461028f90612fac565b80156102dc5780601f106102b1576101008083540402835291602001916102dc565b820191906000526020600020905b8154815290600101906020018083116102bf57829003601f168201915b505050505081526020016001820180546102f590612fac565b80601f016020809104026020016040519081016040528092919081815260200182805461032190612fac565b801561036e5780601f106103435761010080835404028352916020019161036e565b820191906000526020600020905b81548152906001019060200180831161035157829003601f168201915b5050505050815260200160028201805461038790612fac565b80601f01602080910402602001604051908101604052809291908181526020018280546103b390612fac565b80156104005780601f106103d557610100808354040283529160200191610400565b820191906000526020600020905b8154815290600101906020018083116103e357829003601f168201915b5050505050815260200160038201805461041990612fac565b80601f016020809104026020016040519081016040528092919081815260200182805461044590612fac565b80156104925780601f1061046757610100808354040283529160200191610492565b820191906000526020600020905b81548152906001019060200180831161047557829003601f168201915b505050505081526020016004820180546104ab90612fac565b80601f01602080910402602001604051908101604052809291908181526020018280546104d790612fac565b80156105245780601f106104f957610100808354040283529160200191610524565b820191906000526020600020905b81548152906001019060200180831161050757829003601f168201915b5050505050815260200160058201805461053d90612fac565b80601f016020809104026020016040519081016040528092919081815260200182805461056990612fac565b80156105b65780601f1061058b576101008083540402835291602001916105b6565b820191906000526020600020905b81548152906001019060200180831161059957829003601f168201915b505050505081526020016006820180546105cf90612fac565b80601f01602080910402602001604051908101604052809291908181526020018280546105fb90612fac565b80156106485780601f1061061d57610100808354040283529160200191610648565b820191906000526020600020905b81548152906001019060200180831161062b57829003601f168201915b5050505050815260200160078201805461066190612fac565b80601f016020809104026020016040519081016040528092919081815260200182805461068d90612fac565b80156106da5780601f106106af576101008083540402835291602001916106da565b820191906000526020600020905b8154815290600101906020018083116106bd57829003601f168201915b505050505081526020016008820180546106f390612fac565b80601f016020809104026020016040519081016040528092919081815260200182805461071f90612fac565b801561076c5780601f106107415761010080835404028352916020019161076c565b820191906000526020600020905b81548152906001019060200180831161074f57829003601f168201915b5050505050815260200160098201805461078590612fac565b80601f01602080910402602001604051908101604052809291908181526020018280546107b190612fac565b80156107fe5780601f106107d3576101008083540402835291602001916107fe565b820191906000526020600020905b8154815290600101906020018083116107e157829003601f168201915b50505050508152602001600a8201805461081790612fac565b80601f016020809104026020016040519081016040528092919081815260200182805461084390612fac565b80156108905780601f1061086557610100808354040283529160200191610890565b820191906000526020600020905b81548152906001019060200180831161087357829003601f168201915b5050505050815250509080600b016040518061010001604052908160008201548152602001600182015481526020016002820154815260200160038201548152602001600482015481526020016005820154815260200160068201548152602001600782015481525050905082565b600060016000848152602001908152602001600020548214905092915050565b60006002600085815260200190815260200160002060009054906101000a900460ff16610981576040517f08c379a00000000000000000000000000000000000000000000000000000000081526004016109789061303a565b60405180910390fd5b600080600086815260200190815260200160002060405180604001604052908160008201604051806101600160405290816000820180546109c190612fac565b80601f01602080910402602001604051908101604052809291908181526020018280546109ed90612fac565b8015610a3a5780601f10610a0f57610100808354040283529160200191610a3a565b820191906000526020600020905b815481529060010190602001808311610a1d57829003601f168201915b50505050508152602001600182018054610a5390612fac565b80601f0160208091040260200160405190810160405280929190818152602001828054610a7f90612fac565b8015610acc5780601f10610aa157610100808354040283529160200191610acc565b820191906000526020600020905b815481529060010190602001808311610aaf57829003601f168201915b50505050508152602001600282018054610ae590612fac565b80601f0160208091040260200160405190810160405280929190818152602001828054610b1190612fac565b8015610b5e5780601f10610b3357610100808354040283529160200191610b5e565b820191906000526020600020905b815481529060010190602001808311610b4157829003601f168201915b50505050508152602001600382018054610b7790612fac565b80601f0160208091040260200160405190810160405280929190818152602001828054610ba390612fac565b8015610bf05780601f10610bc557610100808354040283529160200191610bf0565b820191906000526020600020905b815481529060010190602001808311610bd357829003601f168201915b50505050508152602001600482018054610c0990612fac565b80601f0160208091040260200160405190810160405280929190818152602001828054610c3590612fac565b8015610c825780601f10610c5757610100808354040283529160200191610c82565b820191906000526020600020905b815481529060010190602001808311610c6557829003601f168201915b50505050508152602001600582018054610c9b90612fac565b80601f0160208091040260200160405190810160405280929190818152602001828054610cc790612fac565b8015610d145780601f10610ce957610100808354040283529160200191610d14565b820191906000526020600020905b815481529060010190602001808311610cf757829003601f168201915b50505050508152602001600682018054610d2d90612fac565b80601f0160208091040260200160405190810160405280929190818152602001828054610d5990612fac565b8015610da65780601f10610d7b57610100808354040283529160200191610da6565b820191906000526020600020905b815481529060010190602001808311610d8957829003601f168201915b50505050508152602001600782018054610dbf90612fac565b80601f0160208091040260200160405190810160405280929190818152602001828054610deb90612fac565b8015610e385780601f10610e0d57610100808354040283529160200191610e38565b820191906000526020600020905b815481529060010190602001808311610e1b57829003601f168201915b50505050508152602001600882018054610e5190612fac565b80601f0160208091040260200160405190810160405280929190818152602001828054610e7d90612fac565b8015610eca5780601f10610e9f57610100808354040283529160200191610eca565b820191906000526020600020905b815481529060010190602001808311610ead57829003601f168201915b50505050508152602001600982018054610ee390612fac565b80601f0160208091040260200160405190810160405280929190818152602001828054610f0f90612fac565b8015610f5c5780601f10610f3157610100808354040283529160200191610f5c565b820191906000526020600020905b815481529060010190602001808311610f3f57829003601f168201915b50505050508152602001600a82018054610f7590612fac565b80601f0160208091040260200160405190810160405280929190818152602001828054610fa190612fac565b8015610fee5780601f10610fc357610100808354040283529160200191610fee565b820191906000526020600020905b815481529060010190602001808311610fd157829003601f168201915b5050505050815250508152602001600b8201604051806101000160405290816000820154815260200160018201548152602001600282015481526020016003820154815260200160048201548152602001600582015481526020016006820154815260200160078201548152505081525050905080602001516000015183600001511015801561108a5750806020015160200151836000015111155b6110c9576040517f08c379a00000000000000000000000000000000000000000000000000000000081526004016110c0906130a6565b60405180910390fd5b8060200151604001518360200151101580156110f15750806020015160600151836020015111155b611130576040517f08c379a000000000000000000000000000000000000000000000000000000000815260040161112790613112565b60405180910390fd5b8060200151608001518360400151101580156111585750806020015160a00151836040015111155b611197576040517f08c379a000000000000000000000000000000000000000000000000000000000815260040161118e9061317e565b60405180910390fd5b806020015160c001518360600151101580156111bf5750806020015160e00151836060015111155b6111fe576040517f08c379a00000000000000000000000000000000000000000000000000000000081526004016111f5906131ea565b60405180910390fd5b6112118561120c87876116e9565b6108ff565b9150509392505050565b6002600084815260200190815260200160002060009054906101000a900460ff161561127c576040517f08c379a000000000000000000000000000000000000000000000000000000000815260040161127390613256565b60405180910390fd5b611284611eba565b8281600001819052508181602001819052508060008086815260200190815260200160002060008201518160000160008201518160000190816112c79190613422565b5060208201518160010190816112dd9190613422565b5060408201518160020190816112f39190613422565b5060608201518160030190816113099190613422565b50608082015181600401908161131f9190613422565b5060a08201518160050190816113359190613422565b5060c082015181600601908161134b9190613422565b5060e08201518160070190816113619190613422565b506101008201518160080190816113789190613422565b5061012082015181600901908161138f9190613422565b5061014082015181600a0190816113a69190613422565b505050602082015181600b01600082015181600001556020820151816001015560408201518160020155606082015181600301556080820151816004015560a0820151816005015560c0820151816006015560e0820151816007015550509050507fa6ca3ae6829f2c8fd5591d8438f03568a9e9b9ea03e4ab802f1d5256e5dbfe5f816040516114369190613532565b60405180910390a1600381908060018154018082558091505060019003906000526020600020906013020160009091909190915060008201518160000160008201518160000190816114889190613422565b50602082015181600101908161149e9190613422565b5060408201518160020190816114b49190613422565b5060608201518160030190816114ca9190613422565b5060808201518160040190816114e09190613422565b5060a08201518160050190816114f69190613422565b5060c082015181600601908161150c9190613422565b5060e08201518160070190816115229190613422565b506101008201518160080190816115399190613422565b506101208201518160090190816115509190613422565b5061014082015181600a0190816115679190613422565b505050602082015181600b01600082015181600001556020820151816001015560408201518160020155606082015181600301556080820151816004015560a0820151816005015560c0820151816006015560e08201518160070155505050506115d184846116e9565b600160008681526020019081526020016000208190555060016002600086815260200190815260200160002060006101000a81548160ff02191690831515021790555050505050565b8151835114801561162c575080518351145b61166b576040517f08c379a0000000000000000000000000000000000000000000000000000000008152600401611662906135a0565b60405180910390fd5b60005b83518110156116e3576116d084828151811061168d5761168c6135c0565b5b60200260200101518483815181106116a8576116a76135c0565b5b60200260200101518484815181106116c3576116c26135c0565b5b602002602001015161121b565b80806116db9061361e565b91505061166e565b50505050565b600080826000015183602001518460400151856060015186608001518760a001518860c001518960e001518a61010001518b61012001518c61014001516040516020016117409b9a999897969594939291906136a2565b604051602081830303815290604052905080846040516020016117649291906137a3565b6040516020818303038152906040528051906020012091505092915050565b60606003805480602002602001604051908101604052809291908181526020016000905b82821015611e99578382906000526020600020906013020160405180604001604052908160008201604051806101600160405290816000820180546117eb90612fac565b80601f016020809104026020016040519081016040528092919081815260200182805461181790612fac565b80156118645780601f1061183957610100808354040283529160200191611864565b820191906000526020600020905b81548152906001019060200180831161184757829003601f168201915b5050505050815260200160018201805461187d90612fac565b80601f01602080910402602001604051908101604052809291908181526020018280546118a990612fac565b80156118f65780601f106118cb576101008083540402835291602001916118f6565b820191906000526020600020905b8154815290600101906020018083116118d957829003601f168201915b5050505050815260200160028201805461190f90612fac565b80601f016020809104026020016040519081016040528092919081815260200182805461193b90612fac565b80156119885780601f1061195d57610100808354040283529160200191611988565b820191906000526020600020905b81548152906001019060200180831161196b57829003601f168201915b505050505081526020016003820180546119a190612fac565b80601f01602080910402602001604051908101604052809291908181526020018280546119cd90612fac565b8015611a1a5780601f106119ef57610100808354040283529160200191611a1a565b820191906000526020600020905b8154815290600101906020018083116119fd57829003601f168201915b50505050508152602001600482018054611a3390612fac565b80601f0160208091040260200160405190810160405280929190818152602001828054611a5f90612fac565b8015611aac5780601f10611a8157610100808354040283529160200191611aac565b820191906000526020600020905b815481529060010190602001808311611a8f57829003601f168201915b50505050508152602001600582018054611ac590612fac565b80601f0160208091040260200160405190810160405280929190818152602001828054611af190612fac565b8015611b3e5780601f10611b1357610100808354040283529160200191611b3e565b820191906000526020600020905b815481529060010190602001808311611b2157829003601f168201915b50505050508152602001600682018054611b5790612fac565b80601f0160208091040260200160405190810160405280929190818152602001828054611b8390612fac565b8015611bd05780601f10611ba557610100808354040283529160200191611bd0565b820191906000526020600020905b815481529060010190602001808311611bb357829003601f168201915b50505050508152602001600782018054611be990612fac565b80601f0160208091040260200160405190810160405280929190818152602001828054611c1590612fac565b8015611c625780601f10611c3757610100808354040283529160200191611c62565b820191906000526020600020905b815481529060010190602001808311611c4557829003601f168201915b50505050508152602001600882018054611c7b90612fac565b80601f0160208091040260200160405190810160405280929190818152602001828054611ca790612fac565b8015611cf45780601f10611cc957610100808354040283529160200191611cf4565b820191906000526020600020905b815481529060010190602001808311611cd757829003601f168201915b50505050508152602001600982018054611d0d90612fac565b80601f0160208091040260200160405190810160405280929190818152602001828054611d3990612fac565b8015611d865780601f10611d5b57610100808354040283529160200191611d86565b820191906000526020600020905b815481529060010190602001808311611d6957829003601f168201915b50505050508152602001600a82018054611d9f90612fac565b80601f0160208091040260200160405190810160405280929190818152602001828054611dcb90612fac565b8015611e185780601f10611ded57610100808354040283529160200191611e18565b820191906000526020600020905b815481529060010190602001808311611dfb57829003601f168201915b5050505050815250508152602001600b8201604051806101000160405290816000820154815260200160018201548152602001600282015481526020016003820154815260200160048201548152602001600582015481526020016006820154815260200160078201548152505081525050815260200190600101906117a7565b50505050905090565b60016020528060005260406000206000915090505481565b6040518060400160405280611ecd611ee0565b8152602001611eda611f3a565b81525090565b60405180610160016040528060608152602001606081526020016060815260200160608152602001606081526020016060815260200160608152602001606081526020016060815260200160608152602001606081525090565b60405180610100016040528060008152602001600081526020016000815260200160008152602001600081526020016000815260200160008152602001600081525090565b6000604051905090565b600080fd5b600080fd5b6000819050919050565b611fa681611f93565b8114611fb157600080fd5b50565b600081359050611fc381611f9d565b92915050565b600060208284031215611fdf57611fde611f89565b5b6000611fed84828501611fb4565b91505092915050565b60008115159050919050565b61200b81611ff6565b82525050565b60006020820190506120266000830184612002565b92915050565b600081519050919050565b600082825260208201905092915050565b60005b8381101561206657808201518184015260208101905061204b565b60008484015250505050565b6000601f19601f8301169050919050565b600061208e8261202c565b6120988185612037565b93506120a8818560208601612048565b6120b181612072565b840191505092915050565b60006101608301600083015184820360008601526120da8282612083565b915050602083015184820360208601526120f48282612083565b9150506040830151848203604086015261210e8282612083565b915050606083015184820360608601526121288282612083565b915050608083015184820360808601526121428282612083565b91505060a083015184820360a086015261215c8282612083565b91505060c083015184820360c08601526121768282612083565b91505060e083015184820360e08601526121908282612083565b9150506101008301518482036101008601526121ac8282612083565b9150506101208301518482036101208601526121c88282612083565b9150506101408301518482036101408601526121e48282612083565b9150508091505092915050565b6000819050919050565b612204816121f1565b82525050565b6101008201600082015161222160008501826121fb565b50602082015161223460208501826121fb565b50604082015161224760408501826121fb565b50606082015161225a60608501826121fb565b50608082015161226d60808501826121fb565b5060a082015161228060a08501826121fb565b5060c082015161229360c08501826121fb565b5060e08201516122a660e08501826121fb565b50505050565b60006101208201905081810360008301526122c781856120bc565b90506122d6602083018461220a565b9392505050565b600080604083850312156122f4576122f3611f89565b5b600061230285828601611fb4565b925050602061231385828601611fb4565b9150509250929050565b600080fd5b7f4e487b7100000000000000000000000000000000000000000000000000000000600052604160045260246000fd5b61235a82612072565b810181811067ffffffffffffffff8211171561237957612378612322565b5b80604052505050565b600061238c611f7f565b90506123988282612351565b919050565b600080fd5b600080fd5b600080fd5b600067ffffffffffffffff8211156123c7576123c6612322565b5b6123d082612072565b9050602081019050919050565b82818337600083830152505050565b60006123ff6123fa846123ac565b612382565b90508281526020810184848401111561241b5761241a6123a7565b5b6124268482856123dd565b509392505050565b600082601f830112612443576124426123a2565b5b81356124538482602086016123ec565b91505092915050565b600061016082840312156124735761247261231d565b5b61247e610160612382565b9050600082013567ffffffffffffffff81111561249e5761249d61239d565b5b6124aa8482850161242e565b600083015250602082013567ffffffffffffffff8111156124ce576124cd61239d565b5b6124da8482850161242e565b602083015250604082013567ffffffffffffffff8111156124fe576124fd61239d565b5b61250a8482850161242e565b604083015250606082013567ffffffffffffffff81111561252e5761252d61239d565b5b61253a8482850161242e565b606083015250608082013567ffffffffffffffff81111561255e5761255d61239d565b5b61256a8482850161242e565b60808301525060a082013567ffffffffffffffff81111561258e5761258d61239d565b5b61259a8482850161242e565b60a08301525060c082013567ffffffffffffffff8111156125be576125bd61239d565b5b6125ca8482850161242e565b60c08301525060e082013567ffffffffffffffff8111156125ee576125ed61239d565b5b6125fa8482850161242e565b60e08301525061010082013567ffffffffffffffff81111561261f5761261e61239d565b5b61262b8482850161242e565b6101008301525061012082013567ffffffffffffffff8111156126515761265061239d565b5b61265d8482850161242e565b6101208301525061014082013567ffffffffffffffff8111156126835761268261239d565b5b61268f8482850161242e565b6101408301525092915050565b6126a5816121f1565b81146126b057600080fd5b50565b6000813590506126c28161269c565b92915050565b6000608082840312156126de576126dd61231d565b5b6126e86080612382565b905060006126f8848285016126b3565b600083015250602061270c848285016126b3565b6020830152506040612720848285016126b3565b6040830152506060612734848285016126b3565b60608301525092915050565b600080600060c0848603121561275957612758611f89565b5b600061276786828701611fb4565b935050602084013567ffffffffffffffff81111561278857612787611f8e565b5b6127948682870161245c565b92505060406127a5868287016126c8565b9150509250925092565b600061010082840312156127c6576127c561231d565b5b6127d1610100612382565b905060006127e1848285016126b3565b60008301525060206127f5848285016126b3565b6020830152506040612809848285016126b3565b604083015250606061281d848285016126b3565b6060830152506080612831848285016126b3565b60808301525060a0612845848285016126b3565b60a08301525060c0612859848285016126b3565b60c08301525060e061286d848285016126b3565b60e08301525092915050565b6000806000610140848603121561289357612892611f89565b5b60006128a186828701611fb4565b935050602084013567ffffffffffffffff8111156128c2576128c1611f8e565b5b6128ce8682870161245c565b92505060406128df868287016127af565b9150509250925092565b600067ffffffffffffffff82111561290457612903612322565b5b602082029050602081019050919050565b600080fd5b600061292d612928846128e9565b612382565b905080838252602082019050602084028301858111156129505761294f612915565b5b835b8181101561297957806129658882611fb4565b845260208401935050602081019050612952565b5050509392505050565b600082601f830112612998576129976123a2565b5b81356129a884826020860161291a565b91505092915050565b600067ffffffffffffffff8211156129cc576129cb612322565b5b602082029050602081019050919050565b60006129f06129eb846129b1565b612382565b90508083825260208201905060208402830185811115612a1357612a12612915565b5b835b81811015612a5a57803567ffffffffffffffff811115612a3857612a376123a2565b5b808601612a45898261245c565b85526020850194505050602081019050612a15565b5050509392505050565b600082601f830112612a7957612a786123a2565b5b8135612a898482602086016129dd565b91505092915050565b600067ffffffffffffffff821115612aad57612aac612322565b5b602082029050602081019050919050565b6000612ad1612acc84612a92565b612382565b9050808382526020820190506101008402830185811115612af557612af4612915565b5b835b81811015612b1f5780612b0a88826127af565b84526020840193505061010081019050612af7565b5050509392505050565b600082601f830112612b3e57612b3d6123a2565b5b8135612b4e848260208601612abe565b91505092915050565b600080600060608486031215612b7057612b6f611f89565b5b600084013567ffffffffffffffff811115612b8e57612b8d611f8e565b5b612b9a86828701612983565b935050602084013567ffffffffffffffff811115612bbb57612bba611f8e565b5b612bc786828701612a64565b925050604084013567ffffffffffffffff811115612be857612be7611f8e565b5b612bf486828701612b29565b9150509250925092565b60008060408385031215612c1557612c14611f89565b5b6000612c2385828601611fb4565b925050602083013567ffffffffffffffff811115612c4457612c43611f8e565b5b612c508582860161245c565b9150509250929050565b612c6381611f93565b82525050565b6000602082019050612c7e6000830184612c5a565b92915050565b600081519050919050565b600082825260208201905092915050565b6000819050602082019050919050565b6000610160830160008301518482036000860152612cce8282612083565b91505060208301518482036020860152612ce88282612083565b91505060408301518482036040860152612d028282612083565b91505060608301518482036060860152612d1c8282612083565b91505060808301518482036080860152612d368282612083565b91505060a083015184820360a0860152612d508282612083565b91505060c083015184820360c0860152612d6a8282612083565b91505060e083015184820360e0860152612d848282612083565b915050610100830151848203610100860152612da08282612083565b915050610120830151848203610120860152612dbc8282612083565b915050610140830151848203610140860152612dd88282612083565b9150508091505092915050565b61010082016000820151612dfc60008501826121fb565b506020820151612e0f60208501826121fb565b506040820151612e2260408501826121fb565b506060820151612e3560608501826121fb565b506080820151612e4860808501826121fb565b5060a0820151612e5b60a08501826121fb565b5060c0820151612e6e60c08501826121fb565b5060e0820151612e8160e08501826121fb565b50505050565b6000610120830160008301518482036000860152612ea58282612cb0565b9150506020830151612eba6020860182612de5565b508091505092915050565b6000612ed18383612e87565b905092915050565b6000602082019050919050565b6000612ef182612c84565b612efb8185612c8f565b935083602082028501612f0d85612ca0565b8060005b85811015612f495784840389528151612f2a8582612ec5565b9450612f3583612ed9565b925060208a01995050600181019050612f11565b50829750879550505050505092915050565b60006020820190508181036000830152612f758184612ee6565b905092915050565b7f4e487b7100000000000000000000000000000000000000000000000000000000600052602260045260246000fd5b60006002820490506001821680612fc457607f821691505b602082108103612fd757612fd6612f7d565b5b50919050565b600082825260208201905092915050565b7f44657669636520494420646f6573206e6f742065786973740000000000000000600082015250565b6000613024601883612fdd565b915061302f82612fee565b602082019050919050565b6000602082019050818103600083015261305381613017565b9050919050565b7f417661696c61626c65206d656d6f7279206973206f7574206f662072616e6765600082015250565b6000613090602083612fdd565b915061309b8261305a565b602082019050919050565b600060208201905081810360008301526130bf81613083565b9050919050565b7f435055207573616765206973206f7574206f662072616e676500000000000000600082015250565b60006130fc601983612fdd565b9150613107826130c6565b602082019050919050565b6000602082019050818103600083015261312b816130ef565b9050919050565b7f4350552070657263656e74616765206973206f7574206f662072616e67650000600082015250565b6000613168601e83612fdd565b915061317382613132565b602082019050919050565b600060208201905081810360008301526131978161315b565b9050919050565b7f4e572062616e647769647468206973206f7574206f662072616e676500000000600082015250565b60006131d4601c83612fdd565b91506131df8261319e565b602082019050919050565b60006020820190508181036000830152613203816131c7565b9050919050565b7f44657669636520494420616c7265616479206578697374730000000000000000600082015250565b6000613240601883612fdd565b915061324b8261320a565b602082019050919050565b6000602082019050818103600083015261326f81613233565b9050919050565b60008190508160005260206000209050919050565b60006020601f8301049050919050565b600082821b905092915050565b6000600883026132d87fffffffffffffffffffffffffffffffffffffffffffffffffffffffffffffffff8261329b565b6132e2868361329b565b95508019841693508086168417925050509392505050565b6000819050919050565b600061331f61331a613315846121f1565b6132fa565b6121f1565b9050919050565b6000819050919050565b61333983613304565b61334d61334582613326565b8484546132a8565b825550505050565b600090565b613362613355565b61336d818484613330565b505050565b5b818110156133915761338660008261335a565b600181019050613373565b5050565b601f8211156133d6576133a781613276565b6133b08461328b565b810160208510156133bf578190505b6133d36133cb8561328b565b830182613372565b50505b505050565b600082821c905092915050565b60006133f9600019846008026133db565b1980831691505092915050565b600061341283836133e8565b9150826002028217905092915050565b61342b8261202c565b67ffffffffffffffff81111561344457613443612322565b5b61344e8254612fac565b613459828285613395565b600060209050601f83116001811461348c576000841561347a578287015190505b6134848582613406565b8655506134ec565b601f19841661349a86613276565b60005b828110156134c25784890151825560018201915060208501945060208101905061349d565b868310156134df57848901516134db601f8916826133e8565b8355505b6001600288020188555050505b505050505050565b60006101208301600083015184820360008601526135128282612cb0565b91505060208301516135276020860182612de5565b508091505092915050565b6000602082019050818103600083015261354c81846134f4565b905092915050565b7f4172726179206c656e677468206d69736d617463680000000000000000000000600082015250565b600061358a601583612fdd565b915061359582613554565b602082019050919050565b600060208201905081810360008301526135b98161357d565b9050919050565b7f4e487b7100000000000000000000000000000000000000000000000000000000600052603260045260246000fd5b7f4e487b7100000000000000000000000000000000000000000000000000000000600052601160045260246000fd5b6000613629826121f1565b91507fffffffffffffffffffffffffffffffffffffffffffffffffffffffffffffffff820361365b5761365a6135ef565b5b600182019050919050565b600081905092915050565b600061367c8261202c565b6136868185613666565b9350613696818560208601612048565b80840191505092915050565b60006136ae828e613671565b91506136ba828d613671565b91506136c6828c613671565b91506136d2828b613671565b91506136de828a613671565b91506136ea8289613671565b91506136f68288613671565b91506137028287613671565b915061370e8286613671565b915061371a8285613671565b91506137268284613671565b91508190509c9b505050505050505050505050565b600081519050919050565b600081905092915050565b600061375c8261373b565b6137668185613746565b9350613776818560208601612048565b80840191505092915050565b6000819050919050565b61379d61379882611f93565b613782565b82525050565b60006137af8285613751565b91506137bb828461378c565b602082019150819050939250505056fea2646970667358221220fcd362d50c2e9a61bbb8f3764d2efa07fa041754c22534ebdcd6f995c12c990864736f6c63430008120033",
  "linkReferences": {},
  "deployedLinkReferences": {}
}