{
  "abi": [
    {
      "anonymous": false,
      "inputs": [
        {
          "components": [
            {
              "internalType": "string",
              "name": "networkInterface",
              "type": "string"
            },
            {
              "internalType": "string",
              "name": "hostname",
              "type": "string"
            }
          ],
          "indexed": false,
          "internalType": "struct DeviceIntegrity.StaticDevice",
          "name": "device",
          "type": "tuple"
        }
      ],
      "name": "Log",
      "type": "event"
    },
    {
      "inputs": [
        {
          "internalType": "bytes32",
          "name": "deviceId",
          "type": "bytes32"
        },
        {
          "components": [
            {
              "internalType": "string",
              "name": "networkInterface",
              "type": "string"
            },
            {
              "internalType": "string",
              "name": "hostname",
              "type": "string"
            }
          ],
          "internalType": "struct DeviceIntegrity.StaticDevice",
          "name": "staticDevice",
          "type": "tuple"
        }
      ],
      "name": "checkDeviceIntegrity",
      "outputs": [
        {
          "internalType": "bool",
          "name": "",
          "type": "bool"
        }
      ],
      "stateMutability": "view",
      "type": "function"
    },
    {
      "inputs": [
        {
          "internalType": "bytes32",
          "name": "",
          "type": "bytes32"
        }
      ],
      "name": "deviceDNA",
      "outputs": [
        {
          "internalType": "bytes32",
          "name": "",
          "type": "bytes32"
        }
      ],
      "stateMutability": "view",
      "type": "function"
    },
    {
      "inputs": [
        {
          "internalType": "bytes32",
          "name": "deviceId",
          "type": "bytes32"
        },
        {
          "components": [
            {
              "internalType": "string",
              "name": "networkInterface",
              "type": "string"
            },
            {
              "internalType": "string",
              "name": "hostname",
              "type": "string"
            }
          ],
          "internalType": "struct DeviceIntegrity.StaticDevice",
          "name": "staticDevice",
          "type": "tuple"
        }
      ],
      "name": "generateDeviceDNA",
      "outputs": [
        {
          "internalType": "bytes32",
          "name": "",
          "type": "bytes32"
        }
      ],
      "stateMutability": "pure",
      "type": "function"
    },
    {
      "inputs": [],
      "name": "getDevices",
      "outputs": [
        {
          "components": [
            {
              "internalType": "string",
              "name": "networkInterface",
              "type": "string"
            },
            {
              "internalType": "string",
              "name": "hostname",
              "type": "string"
            }
          ],
          "internalType": "struct DeviceIntegrity.StaticDevice[]",
          "name": "",
          "type": "tuple[]"
        }
      ],
      "stateMutability": "view",
      "type": "function"
    },
    {
      "inputs": [
        {
          "internalType": "bytes32",
          "name": "",
          "type": "bytes32"
        }
      ],
      "name": "staticDevices",
      "outputs": [
        {
          "internalType": "string",
          "name": "networkInterface",
          "type": "string"
        },
        {
          "internalType": "string",
          "name": "hostname",
          "type": "string"
        }
      ],
      "stateMutability": "view",
      "type": "function"
    },
    {
      "inputs": [
        {
          "internalType": "bytes32",
          "name": "deviceId",
          "type": "bytes32"
        },
        {
          "components": [
            {
              "internalType": "string",
              "name": "networkInterface",
              "type": "string"
            },
            {
              "internalType": "string",
              "name": "hostname",
              "type": "string"
            }
          ],
          "internalType": "struct DeviceIntegrity.StaticDevice",
          "name": "staticDevice",
          "type": "tuple"
        }
      ],
      "name": "storeDevice",
      "outputs": [],
      "stateMutability": "nonpayable",
      "type": "function"
    },
    {
      "inputs": [
        {
          "internalType": "bytes32",
          "name": "deviceId",
          "type": "bytes32"
        },
        {
          "internalType": "bytes32",
          "name": "_deviceDNA",
          "type": "bytes32"
        }
      ],
      "name": "verifyDeviceDNA",
      "outputs": [
        {
          "internalType": "bool",
          "name": "",
          "type": "bool"
        }
      ],
      "stateMutability": "view",
      "type": "function"
    }
  ],
  "bytecode": "608060405234801561001057600080fd5b506109ae806100206000396000f3fe608060405234801561001057600080fd5b506004361061007d5760003560e01c80639863841f1161005b5780639863841f146100e1578063c14f6db614610102578063d611d6c814610123578063fd43d5c11461013857600080fd5b80631b50ef0b14610082578063278cf779146100b95780633969f355146100cc575b600080fd5b6100a4610090366004610548565b600091825260016020526040909120541490565b60405190151581526020015b60405180910390f35b6100a46100c736600461060d565b610158565b6100df6100da36600461060d565b61016f565b005b6100f46100ef36600461060d565b61025c565b6040519081526020016100b0565b6101156101103660046106c0565b610299565b6040516100b0929190610729565b61012b6103c5565b6040516100b09190610785565b6100f46101463660046106c0565b60016020526000908152604090205481565b600061016883610090858561025c565b9392505050565b60008281526020819052604090208151829190819061018e9082610870565b50602082015160018201906101a39082610870565b509050507faa148ae9ff10eb6f640239af97885a219936819db9c95bd18f73007dc8e24e30816040516101d69190610930565b60405180910390a160028054600181018255600082905282518392919091027f405787fa12a823e0f2b7631cc41b3ba8828b3321ca811111fa75cd3aa3bb5ace019081906102249082610870565b50602082015160018201906102399082610870565b505050610246828261025c565b6000928352600160205260409092209190915550565b6000816000015182602001518460405160200161027b93929190610943565b60405160208183030381529060405280519060200120905092915050565b6000602081905290815260409020805481906102b4906107e7565b80601f01602080910402602001604051908101604052809291908181526020018280546102e0906107e7565b801561032d5780601f106103025761010080835404028352916020019161032d565b820191906000526020600020905b81548152906001019060200180831161031057829003601f168201915b505050505090806001018054610342906107e7565b80601f016020809104026020016040519081016040528092919081815260200182805461036e906107e7565b80156103bb5780601f10610390576101008083540402835291602001916103bb565b820191906000526020600020905b81548152906001019060200180831161039e57829003601f168201915b5050505050905082565b60606002805480602002602001604051908101604052809291908181526020016000905b8282101561053f578382906000526020600020906002020160405180604001604052908160008201805461041c906107e7565b80601f0160208091040260200160405190810160405280929190818152602001828054610448906107e7565b80156104955780601f1061046a57610100808354040283529160200191610495565b820191906000526020600020905b81548152906001019060200180831161047857829003601f168201915b505050505081526020016001820180546104ae906107e7565b80601f01602080910402602001604051908101604052809291908181526020018280546104da906107e7565b80156105275780601f106104fc57610100808354040283529160200191610527565b820191906000526020600020905b81548152906001019060200180831161050a57829003601f168201915b505050505081525050815260200190600101906103e9565b50505050905090565b6000806040838503121561055b57600080fd5b50508035926020909101359150565b634e487b7160e01b600052604160045260246000fd5b600082601f83011261059157600080fd5b813567ffffffffffffffff808211156105ac576105ac61056a565b604051601f8301601f19908116603f011681019082821181831017156105d4576105d461056a565b816040528381528660208588010111156105ed57600080fd5b836020870160208301376000602085830101528094505050505092915050565b6000806040838503121561062057600080fd5b82359150602083013567ffffffffffffffff8082111561063f57600080fd5b908401906040828703121561065357600080fd5b60405160408101818110838211171561066e5761066e61056a565b60405282358281111561068057600080fd5b61068c88828601610580565b8252506020830135828111156106a157600080fd5b6106ad88828601610580565b6020830152508093505050509250929050565b6000602082840312156106d257600080fd5b5035919050565b60005b838110156106f45781810151838201526020016106dc565b50506000910152565b600081518084526107158160208601602086016106d9565b601f01601f19169290920160200192915050565b60408152600061073c60408301856106fd565b828103602084015261074e81856106fd565b95945050505050565b600081516040845261076c60408501826106fd565b90506020830151848203602086015261074e82826106fd565b6000602080830181845280855180835260408601915060408160051b870101925083870160005b828110156107da57603f198886030184526107c8858351610757565b945092850192908501906001016107ac565b5092979650505050505050565b600181811c908216806107fb57607f821691505b60208210810361081b57634e487b7160e01b600052602260045260246000fd5b50919050565b601f82111561086b57600081815260208120601f850160051c810160208610156108485750805b601f850160051c820191505b8181101561086757828155600101610854565b5050505b505050565b815167ffffffffffffffff81111561088a5761088a61056a565b61089e8161089884546107e7565b84610821565b602080601f8311600181146108d357600084156108bb5750858301515b600019600386901b1c1916600185901b178555610867565b600085815260208120601f198616915b82811015610902578886015182559484019460019091019084016108e3565b50858210156109205787850151600019600388901b60f8161c191681555b5050505050600190811b01905550565b6020815260006101686020830184610757565b600084516109558184602089016106d9565b8451908301906109698183602089016106d9565b0192835250506020019291505056fea26469706673582212205f9722486a906466a6a95270fea96bfd714010225f88b044714235ae88731ba664736f6c63430008130033",
  "bytecodeSha1": "bc8b0d36e9cd110324239295d4231e687c161cab",
  "compiler": {
    "evm_version": "istanbul",
    "optimizer": {
      "enabled": true,
      "runs": 200
    },
    "version": "0.8.19+commit.7dd6d404"
  },
  "contractName": "DeviceIntegrity",
  "language": "Solidity",
  "natspec": {
    "kind": "dev",
    "methods": {},
    "version": 1
  },
  "opcodes": "PUSH1 0x80 PUSH1 0x40 MSTORE CALLVALUE DUP1 ISZERO PUSH2 0x10 JUMPI PUSH1 0x0 DUP1 REVERT JUMPDEST POP PUSH1 0x4 CALLDATASIZE LT PUSH2 0x7D JUMPI PUSH1 0x0 CALLDATALOAD PUSH1 0xE0 SHR DUP1 PUSH4 0x9863841F GT PUSH2 0x5B JUMPI DUP1 PUSH4 0x9863841F EQ PUSH2 0xE1 JUMPI DUP1 PUSH4 0xC14F6DB6 EQ PUSH2 0x102 JUMPI DUP1 PUSH4 0xD611D6C8 EQ PUSH2 0x123 JUMPI DUP1 PUSH4 0xFD43D5C1 EQ PUSH2 0x138 JUMPI PUSH1 0x0 DUP1 REVERT JUMPDEST DUP1 PUSH4 0x1B50EF0B EQ PUSH2 0x82 JUMPI DUP1 PUSH4 0x278CF779 EQ PUSH2 0xB9 JUMPI DUP1 PUSH4 0x3969F355 EQ PUSH2 0xCC JUMPI JUMPDEST PUSH1 0x0 DUP1 REVERT JUMPDEST PUSH2 0xA4 PUSH2 0x90 CALLDATASIZE PUSH1 0x4 PUSH2 0x548 JUMP JUMPDEST PUSH1 0x0 SWAP2 DUP3 MSTORE PUSH1 0x1 PUSH1 0x20 MSTORE PUSH1 0x40 SWAP1 SWAP2 KECCAK256 SLOAD EQ SWAP1 JUMP JUMPDEST PUSH1 0x40 MLOAD SWAP1 ISZERO ISZERO DUP2 MSTORE PUSH1 0x20 ADD JUMPDEST PUSH1 0x40 MLOAD DUP1 SWAP2 SUB SWAP1 RETURN JUMPDEST PUSH2 0xA4 PUSH2 0xC7 CALLDATASIZE PUSH1 0x4 PUSH2 0x60D JUMP JUMPDEST PUSH2 0x158 JUMP JUMPDEST PUSH2 0xDF PUSH2 0xDA CALLDATASIZE PUSH1 0x4 PUSH2 0x60D JUMP JUMPDEST PUSH2 0x16F JUMP JUMPDEST STOP JUMPDEST PUSH2 0xF4 PUSH2 0xEF CALLDATASIZE PUSH1 0x4 PUSH2 0x60D JUMP JUMPDEST PUSH2 0x25C JUMP JUMPDEST PUSH1 0x40 MLOAD SWAP1 DUP2 MSTORE PUSH1 0x20 ADD PUSH2 0xB0 JUMP JUMPDEST PUSH2 0x115 PUSH2 0x110 CALLDATASIZE PUSH1 0x4 PUSH2 0x6C0 JUMP JUMPDEST PUSH2 0x299 JUMP JUMPDEST PUSH1 0x40 MLOAD PUSH2 0xB0 SWAP3 SWAP2 SWAP1 PUSH2 0x729 JUMP JUMPDEST PUSH2 0x12B PUSH2 0x3C5 JUMP JUMPDEST PUSH1 0x40 MLOAD PUSH2 0xB0 SWAP2 SWAP1 PUSH2 0x785 JUMP JUMPDEST PUSH2 0xF4 PUSH2 0x146 CALLDATASIZE PUSH1 0x4 PUSH2 0x6C0 JUMP JUMPDEST PUSH1 0x1 PUSH1 0x20 MSTORE PUSH1 0x0 SWAP1 DUP2 MSTORE PUSH1 0x40 SWAP1 KECCAK256 SLOAD DUP2 JUMP JUMPDEST PUSH1 0x0 PUSH2 0x168 DUP4 PUSH2 0x90 DUP6 DUP6 PUSH2 0x25C JUMP JUMPDEST SWAP4 SWAP3 POP POP POP JUMP JUMPDEST PUSH1 0x0 DUP3 DUP2 MSTORE PUSH1 0x20 DUP2 SWAP1 MSTORE PUSH1 0x40 SWAP1 KECCAK256 DUP2 MLOAD DUP3 SWAP2 SWAP1 DUP2 SWAP1 PUSH2 0x18E SWAP1 DUP3 PUSH2 0x870 JUMP JUMPDEST POP PUSH1 0x20 DUP3 ADD MLOAD PUSH1 0x1 DUP3 ADD SWAP1 PUSH2 0x1A3 SWAP1 DUP3 PUSH2 0x870 JUMP JUMPDEST POP SWAP1 POP POP PUSH32 0xAA148AE9FF10EB6F640239AF97885A219936819DB9C95BD18F73007DC8E24E30 DUP2 PUSH1 0x40 MLOAD PUSH2 0x1D6 SWAP2 SWAP1 PUSH2 0x930 JUMP JUMPDEST PUSH1 0x40 MLOAD DUP1 SWAP2 SUB SWAP1 LOG1 PUSH1 0x2 DUP1 SLOAD PUSH1 0x1 DUP2 ADD DUP3 SSTORE PUSH1 0x0 DUP3 SWAP1 MSTORE DUP3 MLOAD DUP4 SWAP3 SWAP2 SWAP1 SWAP2 MUL PUSH32 0x405787FA12A823E0F2B7631CC41B3BA8828B3321CA811111FA75CD3AA3BB5ACE ADD SWAP1 DUP2 SWAP1 PUSH2 0x224 SWAP1 DUP3 PUSH2 0x870 JUMP JUMPDEST POP PUSH1 0x20 DUP3 ADD MLOAD PUSH1 0x1 DUP3 ADD SWAP1 PUSH2 0x239 SWAP1 DUP3 PUSH2 0x870 JUMP JUMPDEST POP POP POP PUSH2 0x246 DUP3 DUP3 PUSH2 0x25C JUMP JUMPDEST PUSH1 0x0 SWAP3 DUP4 MSTORE PUSH1 0x1 PUSH1 0x20 MSTORE PUSH1 0x40 SWAP1 SWAP3 KECCAK256 SWAP2 SWAP1 SWAP2 SSTORE POP JUMP JUMPDEST PUSH1 0x0 DUP2 PUSH1 0x0 ADD MLOAD DUP3 PUSH1 0x20 ADD MLOAD DUP5 PUSH1 0x40 MLOAD PUSH1 0x20 ADD PUSH2 0x27B SWAP4 SWAP3 SWAP2 SWAP1 PUSH2 0x943 JUMP JUMPDEST PUSH1 0x40 MLOAD PUSH1 0x20 DUP2 DUP4 SUB SUB DUP2 MSTORE SWAP1 PUSH1 0x40 MSTORE DUP1 MLOAD SWAP1 PUSH1 0x20 ADD KECCAK256 SWAP1 POP SWAP3 SWAP2 POP POP JUMP JUMPDEST PUSH1 0x0 PUSH1 0x20 DUP2 SWAP1 MSTORE SWAP1 DUP2 MSTORE PUSH1 0x40 SWAP1 KECCAK256 DUP1 SLOAD DUP2 SWAP1 PUSH2 0x2B4 SWAP1 PUSH2 0x7E7 JUMP JUMPDEST DUP1 PUSH1 0x1F ADD PUSH1 0x20 DUP1 SWAP2 DIV MUL PUSH1 0x20 ADD PUSH1 0x40 MLOAD SWAP1 DUP2 ADD PUSH1 0x40 MSTORE DUP1 SWAP3 SWAP2 SWAP1 DUP2 DUP2 MSTORE PUSH1 0x20 ADD DUP3 DUP1 SLOAD PUSH2 0x2E0 SWAP1 PUSH2 0x7E7 JUMP JUMPDEST DUP1 ISZERO PUSH2 0x32D JUMPI DUP1 PUSH1 0x1F LT PUSH2 0x302 JUMPI PUSH2 0x100 DUP1 DUP4 SLOAD DIV MUL DUP4 MSTORE SWAP2 PUSH1 0x20 ADD SWAP2 PUSH2 0x32D JUMP JUMPDEST DUP3 ADD SWAP2 SWAP1 PUSH1 0x0 MSTORE PUSH1 0x20 PUSH1 0x0 KECCAK256 SWAP1 JUMPDEST DUP2 SLOAD DUP2 MSTORE SWAP1 PUSH1 0x1 ADD SWAP1 PUSH1 0x20 ADD DUP1 DUP4 GT PUSH2 0x310 JUMPI DUP3 SWAP1 SUB PUSH1 0x1F AND DUP3 ADD SWAP2 JUMPDEST POP POP POP POP POP SWAP1 DUP1 PUSH1 0x1 ADD DUP1 SLOAD PUSH2 0x342 SWAP1 PUSH2 0x7E7 JUMP JUMPDEST DUP1 PUSH1 0x1F ADD PUSH1 0x20 DUP1 SWAP2 DIV MUL PUSH1 0x20 ADD PUSH1 0x40 MLOAD SWAP1 DUP2 ADD PUSH1 0x40 MSTORE DUP1 SWAP3 SWAP2 SWAP1 DUP2 DUP2 MSTORE PUSH1 0x20 ADD DUP3 DUP1 SLOAD PUSH2 0x36E SWAP1 PUSH2 0x7E7 JUMP JUMPDEST DUP1 ISZERO PUSH2 0x3BB JUMPI DUP1 PUSH1 0x1F LT PUSH2 0x390 JUMPI PUSH2 0x100 DUP1 DUP4 SLOAD DIV MUL DUP4 MSTORE SWAP2 PUSH1 0x20 ADD SWAP2 PUSH2 0x3BB JUMP JUMPDEST DUP3 ADD SWAP2 SWAP1 PUSH1 0x0 MSTORE PUSH1 0x20 PUSH1 0x0 KECCAK256 SWAP1 JUMPDEST DUP2 SLOAD DUP2 MSTORE SWAP1 PUSH1 0x1 ADD SWAP1 PUSH1 0x20 ADD DUP1 DUP4 GT PUSH2 0x39E JUMPI DUP3 SWAP1 SUB PUSH1 0x1F AND DUP3 ADD SWAP2 JUMPDEST POP POP POP POP POP SWAP1 POP DUP3 JUMP JUMPDEST PUSH1 0x60 PUSH1 0x2 DUP1 SLOAD DUP1 PUSH1 0x20 MUL PUSH1 0x20 ADD PUSH1 0x40 MLOAD SWAP1 DUP2 ADD PUSH1 0x40 MSTORE DUP1 SWAP3 SWAP2 SWAP1 DUP2 DUP2 MSTORE PUSH1 0x20 ADD PUSH1 0x0 SWAP1 JUMPDEST DUP3 DUP3 LT ISZERO PUSH2 0x53F JUMPI DUP4 DUP3 SWAP1 PUSH1 0x0 MSTORE PUSH1 0x20 PUSH1 0x0 KECCAK256 SWAP1 PUSH1 0x2 MUL ADD PUSH1 0x40 MLOAD DUP1 PUSH1 0x40 ADD PUSH1 0x40 MSTORE SWAP1 DUP2 PUSH1 0x0 DUP3 ADD DUP1 SLOAD PUSH2 0x41C SWAP1 PUSH2 0x7E7 JUMP JUMPDEST DUP1 PUSH1 0x1F ADD PUSH1 0x20 DUP1 SWAP2 DIV MUL PUSH1 0x20 ADD PUSH1 0x40 MLOAD SWAP1 DUP2 ADD PUSH1 0x40 MSTORE DUP1 SWAP3 SWAP2 SWAP1 DUP2 DUP2 MSTORE PUSH1 0x20 ADD DUP3 DUP1 SLOAD PUSH2 0x448 SWAP1 PUSH2 0x7E7 JUMP JUMPDEST DUP1 ISZERO PUSH2 0x495 JUMPI DUP1 PUSH1 0x1F LT PUSH2 0x46A JUMPI PUSH2 0x100 DUP1 DUP4 SLOAD DIV MUL DUP4 MSTORE SWAP2 PUSH1 0x20 ADD SWAP2 PUSH2 0x495 JUMP JUMPDEST DUP3 ADD SWAP2 SWAP1 PUSH1 0x0 MSTORE PUSH1 0x20 PUSH1 0x0 KECCAK256 SWAP1 JUMPDEST DUP2 SLOAD DUP2 MSTORE SWAP1 PUSH1 0x1 ADD SWAP1 PUSH1 0x20 ADD DUP1 DUP4 GT PUSH2 0x478 JUMPI DUP3 SWAP1 SUB PUSH1 0x1F AND DUP3 ADD SWAP2 JUMPDEST POP POP POP POP POP DUP2 MSTORE PUSH1 0x20 ADD PUSH1 0x1 DUP3 ADD DUP1 SLOAD PUSH2 0x4AE SWAP1 PUSH2 0x7E7 JUMP JUMPDEST DUP1 PUSH1 0x1F ADD PUSH1 0x20 DUP1 SWAP2 DIV MUL PUSH1 0x20 ADD PUSH1 0x40 MLOAD SWAP1 DUP2 ADD PUSH1 0x40 MSTORE DUP1 SWAP3 SWAP2 SWAP1 DUP2 DUP2 MSTORE PUSH1 0x20 ADD DUP3 DUP1 SLOAD PUSH2 0x4DA SWAP1 PUSH2 0x7E7 JUMP JUMPDEST DUP1 ISZERO PUSH2 0x527 JUMPI DUP1 PUSH1 0x1F LT PUSH2 0x4FC JUMPI PUSH2 0x100 DUP1 DUP4 SLOAD DIV MUL DUP4 MSTORE SWAP2 PUSH1 0x20 ADD SWAP2 PUSH2 0x527 JUMP JUMPDEST DUP3 ADD SWAP2 SWAP1 PUSH1 0x0 MSTORE PUSH1 0x20 PUSH1 0x0 KECCAK256 SWAP1 JUMPDEST DUP2 SLOAD DUP2 MSTORE SWAP1 PUSH1 0x1 ADD SWAP1 PUSH1 0x20 ADD DUP1 DUP4 GT PUSH2 0x50A JUMPI DUP3 SWAP1 SUB PUSH1 0x1F AND DUP3 ADD SWAP2 JUMPDEST POP POP POP POP POP DUP2 MSTORE POP POP DUP2 MSTORE PUSH1 0x20 ADD SWAP1 PUSH1 0x1 ADD SWAP1 PUSH2 0x3E9 JUMP JUMPDEST POP POP POP POP SWAP1 POP SWAP1 JUMP JUMPDEST PUSH1 0x0 DUP1 PUSH1 0x40 DUP4 DUP6 SUB SLT ISZERO PUSH2 0x55B JUMPI PUSH1 0x0 DUP1 REVERT JUMPDEST POP POP DUP1 CALLDATALOAD SWAP3 PUSH1 0x20 SWAP1 SWAP2 ADD CALLDATALOAD SWAP2 POP JUMP JUMPDEST PUSH4 0x4E487B71 PUSH1 0xE0 SHL PUSH1 0x0 MSTORE PUSH1 0x41 PUSH1 0x4 MSTORE PUSH1 0x24 PUSH1 0x0 REVERT JUMPDEST PUSH1 0x0 DUP3 PUSH1 0x1F DUP4 ADD SLT PUSH2 0x591 JUMPI PUSH1 0x0 DUP1 REVERT JUMPDEST DUP2 CALLDATALOAD PUSH8 0xFFFFFFFFFFFFFFFF DUP1 DUP3 GT ISZERO PUSH2 0x5AC JUMPI PUSH2 0x5AC PUSH2 0x56A JUMP JUMPDEST PUSH1 0x40 MLOAD PUSH1 0x1F DUP4 ADD PUSH1 0x1F NOT SWAP1 DUP2 AND PUSH1 0x3F ADD AND DUP2 ADD SWAP1 DUP3 DUP3 GT DUP2 DUP4 LT OR ISZERO PUSH2 0x5D4 JUMPI PUSH2 0x5D4 PUSH2 0x56A JUMP JUMPDEST DUP2 PUSH1 0x40 MSTORE DUP4 DUP2 MSTORE DUP7 PUSH1 0x20 DUP6 DUP9 ADD ADD GT ISZERO PUSH2 0x5ED JUMPI PUSH1 0x0 DUP1 REVERT JUMPDEST DUP4 PUSH1 0x20 DUP8 ADD PUSH1 0x20 DUP4 ADD CALLDATACOPY PUSH1 0x0 PUSH1 0x20 DUP6 DUP4 ADD ADD MSTORE DUP1 SWAP5 POP POP POP POP POP SWAP3 SWAP2 POP POP JUMP JUMPDEST PUSH1 0x0 DUP1 PUSH1 0x40 DUP4 DUP6 SUB SLT ISZERO PUSH2 0x620 JUMPI PUSH1 0x0 DUP1 REVERT JUMPDEST DUP3 CALLDATALOAD SWAP2 POP PUSH1 0x20 DUP4 ADD CALLDATALOAD PUSH8 0xFFFFFFFFFFFFFFFF DUP1 DUP3 GT ISZERO PUSH2 0x63F JUMPI PUSH1 0x0 DUP1 REVERT JUMPDEST SWAP1 DUP5 ADD SWAP1 PUSH1 0x40 DUP3 DUP8 SUB SLT ISZERO PUSH2 0x653 JUMPI PUSH1 0x0 DUP1 REVERT JUMPDEST PUSH1 0x40 MLOAD PUSH1 0x40 DUP2 ADD DUP2 DUP2 LT DUP4 DUP3 GT OR ISZERO PUSH2 0x66E JUMPI PUSH2 0x66E PUSH2 0x56A JUMP JUMPDEST PUSH1 0x40 MSTORE DUP3 CALLDATALOAD DUP3 DUP2 GT ISZERO PUSH2 0x680 JUMPI PUSH1 0x0 DUP1 REVERT JUMPDEST PUSH2 0x68C DUP9 DUP3 DUP7 ADD PUSH2 0x580 JUMP JUMPDEST DUP3 MSTORE POP PUSH1 0x20 DUP4 ADD CALLDATALOAD DUP3 DUP2 GT ISZERO PUSH2 0x6A1 JUMPI PUSH1 0x0 DUP1 REVERT JUMPDEST PUSH2 0x6AD DUP9 DUP3 DUP7 ADD PUSH2 0x580 JUMP JUMPDEST PUSH1 0x20 DUP4 ADD MSTORE POP DUP1 SWAP4 POP POP POP POP SWAP3 POP SWAP3 SWAP1 POP JUMP JUMPDEST PUSH1 0x0 PUSH1 0x20 DUP3 DUP5 SUB SLT ISZERO PUSH2 0x6D2 JUMPI PUSH1 0x0 DUP1 REVERT JUMPDEST POP CALLDATALOAD SWAP2 SWAP1 POP JUMP JUMPDEST PUSH1 0x0 JUMPDEST DUP4 DUP2 LT ISZERO PUSH2 0x6F4 JUMPI DUP2 DUP2 ADD MLOAD DUP4 DUP3 ADD MSTORE PUSH1 0x20 ADD PUSH2 0x6DC JUMP JUMPDEST POP POP PUSH1 0x0 SWAP2 ADD MSTORE JUMP JUMPDEST PUSH1 0x0 DUP2 MLOAD DUP1 DUP5 MSTORE PUSH2 0x715 DUP2 PUSH1 0x20 DUP7 ADD PUSH1 0x20 DUP7 ADD PUSH2 0x6D9 JUMP JUMPDEST PUSH1 0x1F ADD PUSH1 0x1F NOT AND SWAP3 SWAP1 SWAP3 ADD PUSH1 0x20 ADD SWAP3 SWAP2 POP POP JUMP JUMPDEST PUSH1 0x40 DUP2 MSTORE PUSH1 0x0 PUSH2 0x73C PUSH1 0x40 DUP4 ADD DUP6 PUSH2 0x6FD JUMP JUMPDEST DUP3 DUP2 SUB PUSH1 0x20 DUP5 ADD MSTORE PUSH2 0x74E DUP2 DUP6 PUSH2 0x6FD JUMP JUMPDEST SWAP6 SWAP5 POP POP POP POP POP JUMP JUMPDEST PUSH1 0x0 DUP2 MLOAD PUSH1 0x40 DUP5 MSTORE PUSH2 0x76C PUSH1 0x40 DUP6 ADD DUP3 PUSH2 0x6FD JUMP JUMPDEST SWAP1 POP PUSH1 0x20 DUP4 ADD MLOAD DUP5 DUP3 SUB PUSH1 0x20 DUP7 ADD MSTORE PUSH2 0x74E DUP3 DUP3 PUSH2 0x6FD JUMP JUMPDEST PUSH1 0x0 PUSH1 0x20 DUP1 DUP4 ADD DUP2 DUP5 MSTORE DUP1 DUP6 MLOAD DUP1 DUP4 MSTORE PUSH1 0x40 DUP7 ADD SWAP2 POP PUSH1 0x40 DUP2 PUSH1 0x5 SHL DUP8 ADD ADD SWAP3 POP DUP4 DUP8 ADD PUSH1 0x0 JUMPDEST DUP3 DUP2 LT ISZERO PUSH2 0x7DA JUMPI PUSH1 0x3F NOT DUP9 DUP7 SUB ADD DUP5 MSTORE PUSH2 0x7C8 DUP6 DUP4 MLOAD PUSH2 0x757 JUMP JUMPDEST SWAP5 POP SWAP3 DUP6 ADD SWAP3 SWAP1 DUP6 ADD SWAP1 PUSH1 0x1 ADD PUSH2 0x7AC JUMP JUMPDEST POP SWAP3 SWAP8 SWAP7 POP POP POP POP POP POP POP JUMP JUMPDEST PUSH1 0x1 DUP2 DUP2 SHR SWAP1 DUP3 AND DUP1 PUSH2 0x7FB JUMPI PUSH1 0x7F DUP3 AND SWAP2 POP JUMPDEST PUSH1 0x20 DUP3 LT DUP2 SUB PUSH2 0x81B JUMPI PUSH4 0x4E487B71 PUSH1 0xE0 SHL PUSH1 0x0 MSTORE PUSH1 0x22 PUSH1 0x4 MSTORE PUSH1 0x24 PUSH1 0x0 REVERT JUMPDEST POP SWAP2 SWAP1 POP JUMP JUMPDEST PUSH1 0x1F DUP3 GT ISZERO PUSH2 0x86B JUMPI PUSH1 0x0 DUP2 DUP2 MSTORE PUSH1 0x20 DUP2 KECCAK256 PUSH1 0x1F DUP6 ADD PUSH1 0x5 SHR DUP2 ADD PUSH1 0x20 DUP7 LT ISZERO PUSH2 0x848 JUMPI POP DUP1 JUMPDEST PUSH1 0x1F DUP6 ADD PUSH1 0x5 SHR DUP3 ADD SWAP2 POP JUMPDEST DUP2 DUP2 LT ISZERO PUSH2 0x867 JUMPI DUP3 DUP2 SSTORE PUSH1 0x1 ADD PUSH2 0x854 JUMP JUMPDEST POP POP POP JUMPDEST POP POP POP JUMP JUMPDEST DUP2 MLOAD PUSH8 0xFFFFFFFFFFFFFFFF DUP2 GT ISZERO PUSH2 0x88A JUMPI PUSH2 0x88A PUSH2 0x56A JUMP JUMPDEST PUSH2 0x89E DUP2 PUSH2 0x898 DUP5 SLOAD PUSH2 0x7E7 JUMP JUMPDEST DUP5 PUSH2 0x821 JUMP JUMPDEST PUSH1 0x20 DUP1 PUSH1 0x1F DUP4 GT PUSH1 0x1 DUP2 EQ PUSH2 0x8D3 JUMPI PUSH1 0x0 DUP5 ISZERO PUSH2 0x8BB JUMPI POP DUP6 DUP4 ADD MLOAD JUMPDEST PUSH1 0x0 NOT PUSH1 0x3 DUP7 SWAP1 SHL SHR NOT AND PUSH1 0x1 DUP6 SWAP1 SHL OR DUP6 SSTORE PUSH2 0x867 JUMP JUMPDEST PUSH1 0x0 DUP6 DUP2 MSTORE PUSH1 0x20 DUP2 KECCAK256 PUSH1 0x1F NOT DUP7 AND SWAP2 JUMPDEST DUP3 DUP2 LT ISZERO PUSH2 0x902 JUMPI DUP9 DUP7 ADD MLOAD DUP3 SSTORE SWAP5 DUP5 ADD SWAP5 PUSH1 0x1 SWAP1 SWAP2 ADD SWAP1 DUP5 ADD PUSH2 0x8E3 JUMP JUMPDEST POP DUP6 DUP3 LT ISZERO PUSH2 0x920 JUMPI DUP8 DUP6 ADD MLOAD PUSH1 0x0 NOT PUSH1 0x3 DUP9 SWAP1 SHL PUSH1 0xF8 AND SHR NOT AND DUP2 SSTORE JUMPDEST POP POP POP POP POP PUSH1 0x1 SWAP1 DUP2 SHL ADD SWAP1 SSTORE POP JUMP JUMPDEST PUSH1 0x20 DUP2 MSTORE PUSH1 0x0 PUSH2 0x168 PUSH1 0x20 DUP4 ADD DUP5 PUSH2 0x757 JUMP JUMPDEST PUSH1 0x0 DUP5 MLOAD PUSH2 0x955 DUP2 DUP5 PUSH1 0x20 DUP10 ADD PUSH2 0x6D9 JUMP JUMPDEST DUP5 MLOAD SWAP1 DUP4 ADD SWAP1 PUSH2 0x969 DUP2 DUP4 PUSH1 0x20 DUP10 ADD PUSH2 0x6D9 JUMP JUMPDEST ADD SWAP3 DUP4 MSTORE POP POP PUSH1 0x20 ADD SWAP3 SWAP2 POP POP JUMP INVALID LOG2 PUSH5 0x6970667358 0x22 SLT KECCAK256 0x5F SWAP8 0x22 BASEFEE PUSH11 0x906466A6A95270FEA96BFD PUSH18 0x4010225F88B044714235AE88731BA664736F PUSH13 0x63430008130033000000000000 ",
  "sha1": "4ef3162a05c93346cd8e9ebedafda264dc71d5f0",
  "source": "// SPDX-License-Identifier: MIT\n\npragma solidity ^0.8.9;\n\ncontract DeviceIntegrity {\n    struct StaticDevice {\n        string networkInterface;\n        string hostname;\n    }\n    event Log(StaticDevice device);\n    mapping(bytes32 => StaticDevice) public staticDevices;\n    mapping(bytes32 => bytes32) public deviceDNA;\n    StaticDevice[] devices;\n\n    function generateDeviceDNA(\n        bytes32 deviceId,\n        StaticDevice memory staticDevice\n    ) public pure returns (bytes32) {\n        return\n            keccak256(\n                abi.encodePacked(\n                    staticDevice.networkInterface,\n                    staticDevice.hostname,\n                    deviceId\n                )\n            );\n    }\n\n    function storeDevice(\n        bytes32 deviceId,\n        StaticDevice memory staticDevice\n    ) public {\n        staticDevices[deviceId] = staticDevice;\n        emit Log(staticDevice);\n        devices.push(staticDevice);\n        deviceDNA[deviceId] = generateDeviceDNA(deviceId, staticDevice);\n    }\n\n    function verifyDeviceDNA(\n        bytes32 deviceId,\n        bytes32 _deviceDNA\n    ) public view returns (bool) {\n        return _deviceDNA == deviceDNA[deviceId];\n    }\n\n    function checkDeviceIntegrity(\n        bytes32 deviceId,\n        StaticDevice memory staticDevice\n    ) public view returns (bool) {\n        return\n            verifyDeviceDNA(\n                deviceId,\n                generateDeviceDNA(deviceId, staticDevice)\n            );\n    }\n\n    function getDevices() public view returns (StaticDevice[] memory) {\n        return devices;\n    }\n}\n\n// pragma solidity ^0.8.0;\n\n// contract DeviceIntegrity {\n//     struct StaticDevice {\n//         string networkInterface;\n//         string hostname;\n//     }\n\n//     mapping(bytes32 => StaticDevice) public staticDevices;\n//     mapping(string => bytes32) public deviceDNA;\n\n//     function generateDeviceDNA(\n//         string memory deviceId,\n//         StaticDevice memory staticDevice\n//     ) public pure returns (bytes32) {\n//         bytes32 deviceIdBytes = keccak256(bytes(deviceId));\n//         return\n//             keccak256(\n//                 abi.encodePacked(\n//                     staticDevice.networkInterface,\n//                     staticDevice.hostname,\n//                     deviceIdBytes\n//                 )\n//             );\n//     }\n\n//     function storeDevice(\n//         string memory deviceId,\n//         StaticDevice memory staticDevice\n//     ) public {\n//         staticDevices[keccak256(bytes(deviceId))] = staticDevice;\n//         deviceDNA[deviceId] = generateDeviceDNA(deviceId, staticDevice);\n//     }\n\n//     function verifyDeviceDNA(\n//         string memory deviceId,\n//         bytes32 _deviceDNA\n//     ) public view returns (bool) {\n//         return _deviceDNA == deviceDNA[deviceId];\n//     }\n\n//     function checkDeviceIntegrity(\n//         string memory deviceId,\n//         StaticDevice memory staticDevice\n//     ) public view returns (bool) {\n//         return\n//             verifyDeviceDNA(\n//                 deviceId,\n//                 generateDeviceDNA(deviceId, staticDevice)\n//             );\n//     }\n// }\n",
  "sourcePath": "contracts/DeviceIntegrity.sol",
  "type": "contract"
}