{
  "_format": "hh-sol-artifact-1",
  "contractName": "DeviceIntegrity",
  "sourceName": "contracts/DeviceIntegrity.sol",
  "abi": [
    {
      "anonymous": false,
      "inputs": [
        {
          "components": [
            {
              "components": [
                {
                  "internalType": "string",
                  "name": "networkInterface",
                  "type": "string"
                },
                {
                  "internalType": "string",
                  "name": "hostname",
                  "type": "string"
                },
                {
                  "internalType": "string",
                  "name": "osArchitecture",
                  "type": "string"
                },
                {
                  "internalType": "string",
                  "name": "logicalCPU",
                  "type": "string"
                },
                {
                  "internalType": "string",
                  "name": "osPlatform",
                  "type": "string"
                },
                {
                  "internalType": "string",
                  "name": "osVersion",
                  "type": "string"
                },
                {
                  "internalType": "string",
                  "name": "osRelease",
                  "type": "string"
                }
              ],
              "internalType": "struct DeviceIntegrity.StaticDevice",
              "name": "staticParams",
              "type": "tuple"
            },
            {
              "components": [
                {
                  "internalType": "uint256",
                  "name": "availableMemory",
                  "type": "uint256"
                },
                {
                  "internalType": "uint256",
                  "name": "minAvailableMemory",
                  "type": "uint256"
                },
                {
                  "internalType": "uint256",
                  "name": "maxAvailableMemory",
                  "type": "uint256"
                },
                {
                  "internalType": "uint256",
                  "name": "cpuUsage",
                  "type": "uint256"
                },
                {
                  "internalType": "uint256",
                  "name": "minCpuUsage",
                  "type": "uint256"
                },
                {
                  "internalType": "uint256",
                  "name": "maxCpuUsage",
                  "type": "uint256"
                }
              ],
              "internalType": "struct DeviceIntegrity.DynamicParameters",
              "name": "dynamicParams",
              "type": "tuple"
            }
          ],
          "indexed": false,
          "internalType": "struct DeviceIntegrity.DeviceInfo",
          "name": "device",
          "type": "tuple"
        }
      ],
      "name": "Log",
      "type": "event"
    },
    {
      "inputs": [
        {
          "internalType": "bytes32",
          "name": "deviceId",
          "type": "bytes32"
        },
        {
          "components": [
            {
              "internalType": "string",
              "name": "networkInterface",
              "type": "string"
            },
            {
              "internalType": "string",
              "name": "hostname",
              "type": "string"
            },
            {
              "internalType": "string",
              "name": "osArchitecture",
              "type": "string"
            },
            {
              "internalType": "string",
              "name": "logicalCPU",
              "type": "string"
            },
            {
              "internalType": "string",
              "name": "osPlatform",
              "type": "string"
            },
            {
              "internalType": "string",
              "name": "osVersion",
              "type": "string"
            },
            {
              "internalType": "string",
              "name": "osRelease",
              "type": "string"
            }
          ],
          "internalType": "struct DeviceIntegrity.StaticDevice",
          "name": "staticParams",
          "type": "tuple"
        },
        {
          "components": [
            {
              "internalType": "uint256",
              "name": "availableMemory",
              "type": "uint256"
            },
            {
              "internalType": "uint256",
              "name": "minAvailableMemory",
              "type": "uint256"
            },
            {
              "internalType": "uint256",
              "name": "maxAvailableMemory",
              "type": "uint256"
            },
            {
              "internalType": "uint256",
              "name": "cpuUsage",
              "type": "uint256"
            },
            {
              "internalType": "uint256",
              "name": "minCpuUsage",
              "type": "uint256"
            },
            {
              "internalType": "uint256",
              "name": "maxCpuUsage",
              "type": "uint256"
            }
          ],
          "internalType": "struct DeviceIntegrity.DynamicParameters",
          "name": "dynamicParams",
          "type": "tuple"
        }
      ],
      "name": "checkDeviceIntegrity",
      "outputs": [
        {
          "internalType": "bool",
          "name": "",
          "type": "bool"
        }
      ],
      "stateMutability": "view",
      "type": "function"
    },
    {
      "inputs": [
        {
          "internalType": "bytes32",
          "name": "deviceId",
          "type": "bytes32"
        },
        {
          "components": [
            {
              "internalType": "string",
              "name": "networkInterface",
              "type": "string"
            },
            {
              "internalType": "string",
              "name": "hostname",
              "type": "string"
            },
            {
              "internalType": "string",
              "name": "osArchitecture",
              "type": "string"
            },
            {
              "internalType": "string",
              "name": "logicalCPU",
              "type": "string"
            },
            {
              "internalType": "string",
              "name": "osPlatform",
              "type": "string"
            },
            {
              "internalType": "string",
              "name": "osVersion",
              "type": "string"
            },
            {
              "internalType": "string",
              "name": "osRelease",
              "type": "string"
            }
          ],
          "internalType": "struct DeviceIntegrity.StaticDevice",
          "name": "staticParams",
          "type": "tuple"
        },
        {
          "components": [
            {
              "internalType": "uint256",
              "name": "availableMemory",
              "type": "uint256"
            },
            {
              "internalType": "uint256",
              "name": "minAvailableMemory",
              "type": "uint256"
            },
            {
              "internalType": "uint256",
              "name": "maxAvailableMemory",
              "type": "uint256"
            },
            {
              "internalType": "uint256",
              "name": "cpuUsage",
              "type": "uint256"
            },
            {
              "internalType": "uint256",
              "name": "minCpuUsage",
              "type": "uint256"
            },
            {
              "internalType": "uint256",
              "name": "maxCpuUsage",
              "type": "uint256"
            }
          ],
          "internalType": "struct DeviceIntegrity.DynamicParameters",
          "name": "dynamicParams",
          "type": "tuple"
        }
      ],
      "name": "checkDeviceIntegrity_old",
      "outputs": [
        {
          "internalType": "bool",
          "name": "",
          "type": "bool"
        }
      ],
      "stateMutability": "view",
      "type": "function"
    },
    {
      "inputs": [
        {
          "internalType": "bytes32",
          "name": "",
          "type": "bytes32"
        }
      ],
      "name": "deviceDNA",
      "outputs": [
        {
          "internalType": "bytes32",
          "name": "",
          "type": "bytes32"
        }
      ],
      "stateMutability": "view",
      "type": "function"
    },
    {
      "inputs": [
        {
          "internalType": "bytes32",
          "name": "",
          "type": "bytes32"
        }
      ],
      "name": "deviceExists",
      "outputs": [
        {
          "internalType": "bool",
          "name": "",
          "type": "bool"
        }
      ],
      "stateMutability": "view",
      "type": "function"
    },
    {
      "inputs": [
        {
          "internalType": "bytes32",
          "name": "",
          "type": "bytes32"
        }
      ],
      "name": "deviceInfo",
      "outputs": [
        {
          "components": [
            {
              "internalType": "string",
              "name": "networkInterface",
              "type": "string"
            },
            {
              "internalType": "string",
              "name": "hostname",
              "type": "string"
            },
            {
              "internalType": "string",
              "name": "osArchitecture",
              "type": "string"
            },
            {
              "internalType": "string",
              "name": "logicalCPU",
              "type": "string"
            },
            {
              "internalType": "string",
              "name": "osPlatform",
              "type": "string"
            },
            {
              "internalType": "string",
              "name": "osVersion",
              "type": "string"
            },
            {
              "internalType": "string",
              "name": "osRelease",
              "type": "string"
            }
          ],
          "internalType": "struct DeviceIntegrity.StaticDevice",
          "name": "staticParams",
          "type": "tuple"
        },
        {
          "components": [
            {
              "internalType": "uint256",
              "name": "availableMemory",
              "type": "uint256"
            },
            {
              "internalType": "uint256",
              "name": "minAvailableMemory",
              "type": "uint256"
            },
            {
              "internalType": "uint256",
              "name": "maxAvailableMemory",
              "type": "uint256"
            },
            {
              "internalType": "uint256",
              "name": "cpuUsage",
              "type": "uint256"
            },
            {
              "internalType": "uint256",
              "name": "minCpuUsage",
              "type": "uint256"
            },
            {
              "internalType": "uint256",
              "name": "maxCpuUsage",
              "type": "uint256"
            }
          ],
          "internalType": "struct DeviceIntegrity.DynamicParameters",
          "name": "dynamicParams",
          "type": "tuple"
        }
      ],
      "stateMutability": "view",
      "type": "function"
    },
    {
      "inputs": [
        {
          "internalType": "bytes32",
          "name": "deviceId",
          "type": "bytes32"
        },
        {
          "components": [
            {
              "internalType": "string",
              "name": "networkInterface",
              "type": "string"
            },
            {
              "internalType": "string",
              "name": "hostname",
              "type": "string"
            },
            {
              "internalType": "string",
              "name": "osArchitecture",
              "type": "string"
            },
            {
              "internalType": "string",
              "name": "logicalCPU",
              "type": "string"
            },
            {
              "internalType": "string",
              "name": "osPlatform",
              "type": "string"
            },
            {
              "internalType": "string",
              "name": "osVersion",
              "type": "string"
            },
            {
              "internalType": "string",
              "name": "osRelease",
              "type": "string"
            }
          ],
          "internalType": "struct DeviceIntegrity.StaticDevice",
          "name": "staticParams",
          "type": "tuple"
        },
        {
          "components": [
            {
              "internalType": "uint256",
              "name": "availableMemory",
              "type": "uint256"
            },
            {
              "internalType": "uint256",
              "name": "minAvailableMemory",
              "type": "uint256"
            },
            {
              "internalType": "uint256",
              "name": "maxAvailableMemory",
              "type": "uint256"
            },
            {
              "internalType": "uint256",
              "name": "cpuUsage",
              "type": "uint256"
            },
            {
              "internalType": "uint256",
              "name": "minCpuUsage",
              "type": "uint256"
            },
            {
              "internalType": "uint256",
              "name": "maxCpuUsage",
              "type": "uint256"
            }
          ],
          "internalType": "struct DeviceIntegrity.DynamicParameters",
          "name": "dynamicParams",
          "type": "tuple"
        }
      ],
      "name": "generateDeviceDNA",
      "outputs": [
        {
          "internalType": "bytes32",
          "name": "",
          "type": "bytes32"
        }
      ],
      "stateMutability": "pure",
      "type": "function"
    },
    {
      "inputs": [
        {
          "internalType": "bytes32",
          "name": "deviceId",
          "type": "bytes32"
        },
        {
          "components": [
            {
              "internalType": "string",
              "name": "networkInterface",
              "type": "string"
            },
            {
              "internalType": "string",
              "name": "hostname",
              "type": "string"
            },
            {
              "internalType": "string",
              "name": "osArchitecture",
              "type": "string"
            },
            {
              "internalType": "string",
              "name": "logicalCPU",
              "type": "string"
            },
            {
              "internalType": "string",
              "name": "osPlatform",
              "type": "string"
            },
            {
              "internalType": "string",
              "name": "osVersion",
              "type": "string"
            },
            {
              "internalType": "string",
              "name": "osRelease",
              "type": "string"
            }
          ],
          "internalType": "struct DeviceIntegrity.StaticDevice",
          "name": "staticParams",
          "type": "tuple"
        },
        {
          "components": [
            {
              "internalType": "uint256",
              "name": "availableMemory",
              "type": "uint256"
            },
            {
              "internalType": "uint256",
              "name": "minAvailableMemory",
              "type": "uint256"
            },
            {
              "internalType": "uint256",
              "name": "maxAvailableMemory",
              "type": "uint256"
            },
            {
              "internalType": "uint256",
              "name": "cpuUsage",
              "type": "uint256"
            },
            {
              "internalType": "uint256",
              "name": "minCpuUsage",
              "type": "uint256"
            },
            {
              "internalType": "uint256",
              "name": "maxCpuUsage",
              "type": "uint256"
            }
          ],
          "internalType": "struct DeviceIntegrity.DynamicParameters",
          "name": "dynamicParams",
          "type": "tuple"
        }
      ],
      "name": "generateDeviceDNA_old",
      "outputs": [
        {
          "internalType": "bytes32",
          "name": "",
          "type": "bytes32"
        }
      ],
      "stateMutability": "pure",
      "type": "function"
    },
    {
      "inputs": [],
      "name": "getDevices",
      "outputs": [
        {
          "components": [
            {
              "components": [
                {
                  "internalType": "string",
                  "name": "networkInterface",
                  "type": "string"
                },
                {
                  "internalType": "string",
                  "name": "hostname",
                  "type": "string"
                },
                {
                  "internalType": "string",
                  "name": "osArchitecture",
                  "type": "string"
                },
                {
                  "internalType": "string",
                  "name": "logicalCPU",
                  "type": "string"
                },
                {
                  "internalType": "string",
                  "name": "osPlatform",
                  "type": "string"
                },
                {
                  "internalType": "string",
                  "name": "osVersion",
                  "type": "string"
                },
                {
                  "internalType": "string",
                  "name": "osRelease",
                  "type": "string"
                }
              ],
              "internalType": "struct DeviceIntegrity.StaticDevice",
              "name": "staticParams",
              "type": "tuple"
            },
            {
              "components": [
                {
                  "internalType": "uint256",
                  "name": "availableMemory",
                  "type": "uint256"
                },
                {
                  "internalType": "uint256",
                  "name": "minAvailableMemory",
                  "type": "uint256"
                },
                {
                  "internalType": "uint256",
                  "name": "maxAvailableMemory",
                  "type": "uint256"
                },
                {
                  "internalType": "uint256",
                  "name": "cpuUsage",
                  "type": "uint256"
                },
                {
                  "internalType": "uint256",
                  "name": "minCpuUsage",
                  "type": "uint256"
                },
                {
                  "internalType": "uint256",
                  "name": "maxCpuUsage",
                  "type": "uint256"
                }
              ],
              "internalType": "struct DeviceIntegrity.DynamicParameters",
              "name": "dynamicParams",
              "type": "tuple"
            }
          ],
          "internalType": "struct DeviceIntegrity.DeviceInfo[]",
          "name": "",
          "type": "tuple[]"
        }
      ],
      "stateMutability": "view",
      "type": "function"
    },
    {
      "inputs": [
        {
          "internalType": "bytes32",
          "name": "deviceId",
          "type": "bytes32"
        },
        {
          "components": [
            {
              "internalType": "string",
              "name": "networkInterface",
              "type": "string"
            },
            {
              "internalType": "string",
              "name": "hostname",
              "type": "string"
            },
            {
              "internalType": "string",
              "name": "osArchitecture",
              "type": "string"
            },
            {
              "internalType": "string",
              "name": "logicalCPU",
              "type": "string"
            },
            {
              "internalType": "string",
              "name": "osPlatform",
              "type": "string"
            },
            {
              "internalType": "string",
              "name": "osVersion",
              "type": "string"
            },
            {
              "internalType": "string",
              "name": "osRelease",
              "type": "string"
            }
          ],
          "internalType": "struct DeviceIntegrity.StaticDevice",
          "name": "staticParams",
          "type": "tuple"
        },
        {
          "components": [
            {
              "internalType": "uint256",
              "name": "availableMemory",
              "type": "uint256"
            },
            {
              "internalType": "uint256",
              "name": "minAvailableMemory",
              "type": "uint256"
            },
            {
              "internalType": "uint256",
              "name": "maxAvailableMemory",
              "type": "uint256"
            },
            {
              "internalType": "uint256",
              "name": "cpuUsage",
              "type": "uint256"
            },
            {
              "internalType": "uint256",
              "name": "minCpuUsage",
              "type": "uint256"
            },
            {
              "internalType": "uint256",
              "name": "maxCpuUsage",
              "type": "uint256"
            }
          ],
          "internalType": "struct DeviceIntegrity.DynamicParameters",
          "name": "dynamicParams",
          "type": "tuple"
        }
      ],
      "name": "storeDevice",
      "outputs": [],
      "stateMutability": "nonpayable",
      "type": "function"
    },
    {
      "inputs": [
        {
          "internalType": "bytes32",
          "name": "deviceId",
          "type": "bytes32"
        },
        {
          "components": [
            {
              "internalType": "string",
              "name": "networkInterface",
              "type": "string"
            },
            {
              "internalType": "string",
              "name": "hostname",
              "type": "string"
            },
            {
              "internalType": "string",
              "name": "osArchitecture",
              "type": "string"
            },
            {
              "internalType": "string",
              "name": "logicalCPU",
              "type": "string"
            },
            {
              "internalType": "string",
              "name": "osPlatform",
              "type": "string"
            },
            {
              "internalType": "string",
              "name": "osVersion",
              "type": "string"
            },
            {
              "internalType": "string",
              "name": "osRelease",
              "type": "string"
            }
          ],
          "internalType": "struct DeviceIntegrity.StaticDevice",
          "name": "staticParams",
          "type": "tuple"
        },
        {
          "components": [
            {
              "internalType": "uint256",
              "name": "availableMemory",
              "type": "uint256"
            },
            {
              "internalType": "uint256",
              "name": "minAvailableMemory",
              "type": "uint256"
            },
            {
              "internalType": "uint256",
              "name": "maxAvailableMemory",
              "type": "uint256"
            },
            {
              "internalType": "uint256",
              "name": "cpuUsage",
              "type": "uint256"
            },
            {
              "internalType": "uint256",
              "name": "minCpuUsage",
              "type": "uint256"
            },
            {
              "internalType": "uint256",
              "name": "maxCpuUsage",
              "type": "uint256"
            }
          ],
          "internalType": "struct DeviceIntegrity.DynamicParameters",
          "name": "dynamicParams",
          "type": "tuple"
        }
      ],
      "name": "storeDevice_old",
      "outputs": [],
      "stateMutability": "nonpayable",
      "type": "function"
    },
    {
      "inputs": [
        {
          "internalType": "bytes32[]",
          "name": "deviceIds",
          "type": "bytes32[]"
        },
        {
          "components": [
            {
              "internalType": "string",
              "name": "networkInterface",
              "type": "string"
            },
            {
              "internalType": "string",
              "name": "hostname",
              "type": "string"
            },
            {
              "internalType": "string",
              "name": "osArchitecture",
              "type": "string"
            },
            {
              "internalType": "string",
              "name": "logicalCPU",
              "type": "string"
            },
            {
              "internalType": "string",
              "name": "osPlatform",
              "type": "string"
            },
            {
              "internalType": "string",
              "name": "osVersion",
              "type": "string"
            },
            {
              "internalType": "string",
              "name": "osRelease",
              "type": "string"
            }
          ],
          "internalType": "struct DeviceIntegrity.StaticDevice[]",
          "name": "staticParams",
          "type": "tuple[]"
        },
        {
          "components": [
            {
              "internalType": "uint256",
              "name": "availableMemory",
              "type": "uint256"
            },
            {
              "internalType": "uint256",
              "name": "minAvailableMemory",
              "type": "uint256"
            },
            {
              "internalType": "uint256",
              "name": "maxAvailableMemory",
              "type": "uint256"
            },
            {
              "internalType": "uint256",
              "name": "cpuUsage",
              "type": "uint256"
            },
            {
              "internalType": "uint256",
              "name": "minCpuUsage",
              "type": "uint256"
            },
            {
              "internalType": "uint256",
              "name": "maxCpuUsage",
              "type": "uint256"
            }
          ],
          "internalType": "struct DeviceIntegrity.DynamicParameters[]",
          "name": "dynamicParams",
          "type": "tuple[]"
        }
      ],
      "name": "storeDevices",
      "outputs": [],
      "stateMutability": "nonpayable",
      "type": "function"
    },
    {
      "inputs": [
        {
          "internalType": "bytes32",
          "name": "deviceId",
          "type": "bytes32"
        },
        {
          "internalType": "bytes32",
          "name": "_deviceDNA",
          "type": "bytes32"
        }
      ],
      "name": "verifyDeviceDNA",
      "outputs": [
        {
          "internalType": "bool",
          "name": "",
          "type": "bool"
        }
      ],
      "stateMutability": "view",
      "type": "function"
    }
  ],
  "bytecode": "0x608060405234801561001057600080fd5b506130a5806100206000396000f3fe608060405234801561001057600080fd5b50600436106100b45760003560e01c80636a8da074116100715780636a8da074146101c6578063ab88f6be146101e2578063ba1bdd6d146101fe578063c99dacfb1461022e578063d611d6c81461025e578063fd43d5c11461027c576100b4565b80630bd4a9ed146100b95780630c19a13c146100e95780631b50ef0b1461011a57806325199bfb1461014a57806336684d641461017a57806357d1dd7414610196575b600080fd5b6100d360048036038101906100ce9190611c37565b6102ac565b6040516100e09190611c7f565b60405180910390f35b61010360048036038101906100fe9190611c37565b6102cc565b604051610111929190611e84565b60405180910390f35b610134600480360381019061012f9190611eb4565b61073e565b6040516101419190611c7f565b60405180910390f35b610164600480360381019061015f9190612277565b61075e565b60405161017191906122f6565b60405180910390f35b610194600480360381019061018f919061257d565b6108a8565b005b6101b060048036038101906101ab9190612277565b610977565b6040516101bd91906122f6565b60405180910390f35b6101e060048036038101906101db9190612277565b610ab5565b005b6101fc60048036038101906101f79190612277565b610dd7565b005b61021860048036038101906102139190612277565b6110f9565b6040516102259190611c7f565b60405180910390f35b61024860048036038101906102439190612277565b611118565b6040516102559190611c7f565b60405180910390f35b61026661167b565b6040516102739190612864565b60405180910390f35b61029660048036038101906102919190611c37565b611b3c565b6040516102a391906122f6565b60405180910390f35b60026020528060005260406000206000915054906101000a900460ff1681565b6000602052806000526040600020600091509050806000016040518060e00160405290816000820180546102ff906128b5565b80601f016020809104026020016040519081016040528092919081815260200182805461032b906128b5565b80156103785780601f1061034d57610100808354040283529160200191610378565b820191906000526020600020905b81548152906001019060200180831161035b57829003601f168201915b50505050508152602001600182018054610391906128b5565b80601f01602080910402602001604051908101604052809291908181526020018280546103bd906128b5565b801561040a5780601f106103df5761010080835404028352916020019161040a565b820191906000526020600020905b8154815290600101906020018083116103ed57829003601f168201915b50505050508152602001600282018054610423906128b5565b80601f016020809104026020016040519081016040528092919081815260200182805461044f906128b5565b801561049c5780601f106104715761010080835404028352916020019161049c565b820191906000526020600020905b81548152906001019060200180831161047f57829003601f168201915b505050505081526020016003820180546104b5906128b5565b80601f01602080910402602001604051908101604052809291908181526020018280546104e1906128b5565b801561052e5780601f106105035761010080835404028352916020019161052e565b820191906000526020600020905b81548152906001019060200180831161051157829003601f168201915b50505050508152602001600482018054610547906128b5565b80601f0160208091040260200160405190810160405280929190818152602001828054610573906128b5565b80156105c05780601f10610595576101008083540402835291602001916105c0565b820191906000526020600020905b8154815290600101906020018083116105a357829003601f168201915b505050505081526020016005820180546105d9906128b5565b80601f0160208091040260200160405190810160405280929190818152602001828054610605906128b5565b80156106525780601f1061062757610100808354040283529160200191610652565b820191906000526020600020905b81548152906001019060200180831161063557829003601f168201915b5050505050815260200160068201805461066b906128b5565b80601f0160208091040260200160405190810160405280929190818152602001828054610697906128b5565b80156106e45780601f106106b9576101008083540402835291602001916106e4565b820191906000526020600020905b8154815290600101906020018083116106c757829003601f168201915b50505050508152505090806007016040518060c00160405290816000820154815260200160018201548152602001600282015481526020016003820154815260200160048201548152602001600582015481525050905082565b600060016000848152602001908152602001600020548214905092915050565b600080836000015184602001518560400151866060015187608001518860a001518960c0015189600001518a606001516040516020016107a699989796959493929190612943565b604051602081830303815290604052905082602001518360000151101580156107d757508260400151836000015111155b610816576040517f08c379a000000000000000000000000000000000000000000000000000000000815260040161080d90612a27565b60405180910390fd5b826080015183606001511015801561083657508260a00151836060015111155b610875576040517f08c379a000000000000000000000000000000000000000000000000000000000815260040161086c90612a93565b60405180910390fd5b8085604051602001610888929190612b1b565b604051602081830303815290604052805190602001209150509392505050565b815183511480156108ba575080518351145b6108f9576040517f08c379a00000000000000000000000000000000000000000000000000000000081526004016108f090612b8f565b60405180910390fd5b60005b83518110156109715761095e84828151811061091b5761091a612baf565b5b602002602001015184838151811061093657610935612baf565b5b602002602001015184848151811061095157610950612baf565b5b6020026020010151610dd7565b808061096990612c0d565b9150506108fc565b50505050565b600080836000015184602001518560400151866060015187608001518860a001518960c001516040516020016109b39796959493929190612c55565b604051602081830303815290604052905082602001518360000151101580156109e457508260400151836000015111155b610a23576040517f08c379a0000000000000000000000000000000000000000000000000000000008152600401610a1a90612a27565b60405180910390fd5b8260800151836060015110158015610a4357508260a00151836060015111155b610a82576040517f08c379a0000000000000000000000000000000000000000000000000000000008152600401610a7990612a93565b60405180910390fd5b8085604051602001610a95929190612b1b565b604051602081830303815290604052805190602001209150509392505050565b6002600084815260200190815260200160002060009054906101000a900460ff1615610b16576040517f08c379a0000000000000000000000000000000000000000000000000000000008152600401610b0d90612d06565b60405180910390fd5b610b1e611b54565b828160000181905250818160200181905250806000808681526020019081526020016000206000820151816000016000820151816000019081610b619190612ed2565b506020820151816001019081610b779190612ed2565b506040820151816002019081610b8d9190612ed2565b506060820151816003019081610ba39190612ed2565b506080820151816004019081610bb99190612ed2565b5060a0820151816005019081610bcf9190612ed2565b5060c0820151816006019081610be59190612ed2565b505050602082015181600701600082015181600001556020820151816001015560408201518160020155606082015181600301556080820151816004015560a0820151816005015550509050507f9cf2cb68893eb07b81fa97aef6758f8fe6f90e22e939c26848e6a250713a879b81604051610c619190612fe1565b60405180910390a160038190806001815401808255809150506001900390600052602060002090600d02016000909190919091506000820151816000016000820151816000019081610cb39190612ed2565b506020820151816001019081610cc99190612ed2565b506040820151816002019081610cdf9190612ed2565b506060820151816003019081610cf59190612ed2565b506080820151816004019081610d0b9190612ed2565b5060a0820151816005019081610d219190612ed2565b5060c0820151816006019081610d379190612ed2565b505050602082015181600701600082015181600001556020820151816001015560408201518160020155606082015181600301556080820151816004015560a0820151816005015550505050610d8e848484610977565b600160008681526020019081526020016000208190555060016002600086815260200190815260200160002060006101000a81548160ff02191690831515021790555050505050565b6002600084815260200190815260200160002060009054906101000a900460ff1615610e38576040517f08c379a0000000000000000000000000000000000000000000000000000000008152600401610e2f90612d06565b60405180910390fd5b610e40611b54565b828160000181905250818160200181905250806000808681526020019081526020016000206000820151816000016000820151816000019081610e839190612ed2565b506020820151816001019081610e999190612ed2565b506040820151816002019081610eaf9190612ed2565b506060820151816003019081610ec59190612ed2565b506080820151816004019081610edb9190612ed2565b5060a0820151816005019081610ef19190612ed2565b5060c0820151816006019081610f079190612ed2565b505050602082015181600701600082015181600001556020820151816001015560408201518160020155606082015181600301556080820151816004015560a0820151816005015550509050507f9cf2cb68893eb07b81fa97aef6758f8fe6f90e22e939c26848e6a250713a879b81604051610f839190612fe1565b60405180910390a160038190806001815401808255809150506001900390600052602060002090600d02016000909190919091506000820151816000016000820151816000019081610fd59190612ed2565b506020820151816001019081610feb9190612ed2565b5060408201518160020190816110019190612ed2565b5060608201518160030190816110179190612ed2565b50608082015181600401908161102d9190612ed2565b5060a08201518160050190816110439190612ed2565b5060c08201518160060190816110599190612ed2565b505050602082015181600701600082015181600001556020820151816001015560408201518160020155606082015181600301556080820151816004015560a08201518160050155505050506110b0848484610977565b600160008681526020019081526020016000208190555060016002600086815260200190815260200160002060006101000a81548160ff02191690831515021790555050505050565b600061110f8461110a86868661075e565b61073e565b90509392505050565b60006002600085815260200190815260200160002060009054906101000a900460ff1661117a576040517f08c379a00000000000000000000000000000000000000000000000000000000081526004016111719061304f565b60405180910390fd5b6000806000868152602001908152602001600020604051806040016040529081600082016040518060e00160405290816000820180546111b9906128b5565b80601f01602080910402602001604051908101604052809291908181526020018280546111e5906128b5565b80156112325780601f1061120757610100808354040283529160200191611232565b820191906000526020600020905b81548152906001019060200180831161121557829003601f168201915b5050505050815260200160018201805461124b906128b5565b80601f0160208091040260200160405190810160405280929190818152602001828054611277906128b5565b80156112c45780601f10611299576101008083540402835291602001916112c4565b820191906000526020600020905b8154815290600101906020018083116112a757829003601f168201915b505050505081526020016002820180546112dd906128b5565b80601f0160208091040260200160405190810160405280929190818152602001828054611309906128b5565b80156113565780601f1061132b57610100808354040283529160200191611356565b820191906000526020600020905b81548152906001019060200180831161133957829003601f168201915b5050505050815260200160038201805461136f906128b5565b80601f016020809104026020016040519081016040528092919081815260200182805461139b906128b5565b80156113e85780601f106113bd576101008083540402835291602001916113e8565b820191906000526020600020905b8154815290600101906020018083116113cb57829003601f168201915b50505050508152602001600482018054611401906128b5565b80601f016020809104026020016040519081016040528092919081815260200182805461142d906128b5565b801561147a5780601f1061144f5761010080835404028352916020019161147a565b820191906000526020600020905b81548152906001019060200180831161145d57829003601f168201915b50505050508152602001600582018054611493906128b5565b80601f01602080910402602001604051908101604052809291908181526020018280546114bf906128b5565b801561150c5780601f106114e15761010080835404028352916020019161150c565b820191906000526020600020905b8154815290600101906020018083116114ef57829003601f168201915b50505050508152602001600682018054611525906128b5565b80601f0160208091040260200160405190810160405280929190818152602001828054611551906128b5565b801561159e5780601f106115735761010080835404028352916020019161159e565b820191906000526020600020905b81548152906001019060200180831161158157829003601f168201915b5050505050815250508152602001600782016040518060c00160405290816000820154815260200160018201548152602001600282015481526020016003820154815260200160048201548152602001600582015481525050815250509050611605611b7a565b6040518060c001604052808560000151815260200183602001516020015181526020018360200151604001518152602001856060015181526020018360200151608001518152602001836020015160a0015181525090506116708661166b888885610977565b61073e565b925050509392505050565b60606003805480602002602001604051908101604052809291908181526020016000905b82821015611b3357838290600052602060002090600d0201604051806040016040529081600082016040518060e00160405290816000820180546116e2906128b5565b80601f016020809104026020016040519081016040528092919081815260200182805461170e906128b5565b801561175b5780601f106117305761010080835404028352916020019161175b565b820191906000526020600020905b81548152906001019060200180831161173e57829003601f168201915b50505050508152602001600182018054611774906128b5565b80601f01602080910402602001604051908101604052809291908181526020018280546117a0906128b5565b80156117ed5780601f106117c2576101008083540402835291602001916117ed565b820191906000526020600020905b8154815290600101906020018083116117d057829003601f168201915b50505050508152602001600282018054611806906128b5565b80601f0160208091040260200160405190810160405280929190818152602001828054611832906128b5565b801561187f5780601f106118545761010080835404028352916020019161187f565b820191906000526020600020905b81548152906001019060200180831161186257829003601f168201915b50505050508152602001600382018054611898906128b5565b80601f01602080910402602001604051908101604052809291908181526020018280546118c4906128b5565b80156119115780601f106118e657610100808354040283529160200191611911565b820191906000526020600020905b8154815290600101906020018083116118f457829003601f168201915b5050505050815260200160048201805461192a906128b5565b80601f0160208091040260200160405190810160405280929190818152602001828054611956906128b5565b80156119a35780601f10611978576101008083540402835291602001916119a3565b820191906000526020600020905b81548152906001019060200180831161198657829003601f168201915b505050505081526020016005820180546119bc906128b5565b80601f01602080910402602001604051908101604052809291908181526020018280546119e8906128b5565b8015611a355780601f10611a0a57610100808354040283529160200191611a35565b820191906000526020600020905b815481529060010190602001808311611a1857829003601f168201915b50505050508152602001600682018054611a4e906128b5565b80601f0160208091040260200160405190810160405280929190818152602001828054611a7a906128b5565b8015611ac75780601f10611a9c57610100808354040283529160200191611ac7565b820191906000526020600020905b815481529060010190602001808311611aaa57829003601f168201915b5050505050815250508152602001600782016040518060c00160405290816000820154815260200160018201548152602001600282015481526020016003820154815260200160048201548152602001600582015481525050815250508152602001906001019061169f565b50505050905090565b60016020528060005260406000206000915090505481565b6040518060400160405280611b67611bb0565b8152602001611b74611b7a565b81525090565b6040518060c001604052806000815260200160008152602001600081526020016000815260200160008152602001600081525090565b6040518060e00160405280606081526020016060815260200160608152602001606081526020016060815260200160608152602001606081525090565b6000604051905090565b600080fd5b600080fd5b6000819050919050565b611c1481611c01565b8114611c1f57600080fd5b50565b600081359050611c3181611c0b565b92915050565b600060208284031215611c4d57611c4c611bf7565b5b6000611c5b84828501611c22565b91505092915050565b60008115159050919050565b611c7981611c64565b82525050565b6000602082019050611c946000830184611c70565b92915050565b600081519050919050565b600082825260208201905092915050565b60005b83811015611cd4578082015181840152602081019050611cb9565b60008484015250505050565b6000601f19601f8301169050919050565b6000611cfc82611c9a565b611d068185611ca5565b9350611d16818560208601611cb6565b611d1f81611ce0565b840191505092915050565b600060e0830160008301518482036000860152611d478282611cf1565b91505060208301518482036020860152611d618282611cf1565b91505060408301518482036040860152611d7b8282611cf1565b91505060608301518482036060860152611d958282611cf1565b91505060808301518482036080860152611daf8282611cf1565b91505060a083015184820360a0860152611dc98282611cf1565b91505060c083015184820360c0860152611de38282611cf1565b9150508091505092915050565b6000819050919050565b611e0381611df0565b82525050565b60c082016000820151611e1f6000850182611dfa565b506020820151611e326020850182611dfa565b506040820151611e456040850182611dfa565b506060820151611e586060850182611dfa565b506080820151611e6b6080850182611dfa565b5060a0820151611e7e60a0850182611dfa565b50505050565b600060e0820190508181036000830152611e9e8185611d2a565b9050611ead6020830184611e09565b9392505050565b60008060408385031215611ecb57611eca611bf7565b5b6000611ed985828601611c22565b9250506020611eea85828601611c22565b9150509250929050565b600080fd5b7f4e487b7100000000000000000000000000000000000000000000000000000000600052604160045260246000fd5b611f3182611ce0565b810181811067ffffffffffffffff82111715611f5057611f4f611ef9565b5b80604052505050565b6000611f63611bed565b9050611f6f8282611f28565b919050565b600080fd5b600080fd5b600080fd5b600067ffffffffffffffff821115611f9e57611f9d611ef9565b5b611fa782611ce0565b9050602081019050919050565b82818337600083830152505050565b6000611fd6611fd184611f83565b611f59565b905082815260208101848484011115611ff257611ff1611f7e565b5b611ffd848285611fb4565b509392505050565b600082601f83011261201a57612019611f79565b5b813561202a848260208601611fc3565b91505092915050565b600060e0828403121561204957612048611ef4565b5b61205360e0611f59565b9050600082013567ffffffffffffffff81111561207357612072611f74565b5b61207f84828501612005565b600083015250602082013567ffffffffffffffff8111156120a3576120a2611f74565b5b6120af84828501612005565b602083015250604082013567ffffffffffffffff8111156120d3576120d2611f74565b5b6120df84828501612005565b604083015250606082013567ffffffffffffffff81111561210357612102611f74565b5b61210f84828501612005565b606083015250608082013567ffffffffffffffff81111561213357612132611f74565b5b61213f84828501612005565b60808301525060a082013567ffffffffffffffff81111561216357612162611f74565b5b61216f84828501612005565b60a08301525060c082013567ffffffffffffffff81111561219357612192611f74565b5b61219f84828501612005565b60c08301525092915050565b6121b481611df0565b81146121bf57600080fd5b50565b6000813590506121d1816121ab565b92915050565b600060c082840312156121ed576121ec611ef4565b5b6121f760c0611f59565b90506000612207848285016121c2565b600083015250602061221b848285016121c2565b602083015250604061222f848285016121c2565b6040830152506060612243848285016121c2565b6060830152506080612257848285016121c2565b60808301525060a061226b848285016121c2565b60a08301525092915050565b6000806000610100848603121561229157612290611bf7565b5b600061229f86828701611c22565b935050602084013567ffffffffffffffff8111156122c0576122bf611bfc565b5b6122cc86828701612033565b92505060406122dd868287016121d7565b9150509250925092565b6122f081611c01565b82525050565b600060208201905061230b60008301846122e7565b92915050565b600067ffffffffffffffff82111561232c5761232b611ef9565b5b602082029050602081019050919050565b600080fd5b600061235561235084612311565b611f59565b905080838252602082019050602084028301858111156123785761237761233d565b5b835b818110156123a1578061238d8882611c22565b84526020840193505060208101905061237a565b5050509392505050565b600082601f8301126123c0576123bf611f79565b5b81356123d0848260208601612342565b91505092915050565b600067ffffffffffffffff8211156123f4576123f3611ef9565b5b602082029050602081019050919050565b6000612418612413846123d9565b611f59565b9050808382526020820190506020840283018581111561243b5761243a61233d565b5b835b8181101561248257803567ffffffffffffffff8111156124605761245f611f79565b5b80860161246d8982612033565b8552602085019450505060208101905061243d565b5050509392505050565b600082601f8301126124a1576124a0611f79565b5b81356124b1848260208601612405565b91505092915050565b600067ffffffffffffffff8211156124d5576124d4611ef9565b5b602082029050602081019050919050565b60006124f96124f4846124ba565b611f59565b90508083825260208201905060c0840283018581111561251c5761251b61233d565b5b835b81811015612545578061253188826121d7565b84526020840193505060c08101905061251e565b5050509392505050565b600082601f83011261256457612563611f79565b5b81356125748482602086016124e6565b91505092915050565b60008060006060848603121561259657612595611bf7565b5b600084013567ffffffffffffffff8111156125b4576125b3611bfc565b5b6125c0868287016123ab565b935050602084013567ffffffffffffffff8111156125e1576125e0611bfc565b5b6125ed8682870161248c565b925050604084013567ffffffffffffffff81111561260e5761260d611bfc565b5b61261a8682870161254f565b9150509250925092565b600081519050919050565b600082825260208201905092915050565b6000819050602082019050919050565b600060e083016000830151848203600086015261266d8282611cf1565b915050602083015184820360208601526126878282611cf1565b915050604083015184820360408601526126a18282611cf1565b915050606083015184820360608601526126bb8282611cf1565b915050608083015184820360808601526126d58282611cf1565b91505060a083015184820360a08601526126ef8282611cf1565b91505060c083015184820360c08601526127098282611cf1565b9150508091505092915050565b60c08201600082015161272c6000850182611dfa565b50602082015161273f6020850182611dfa565b5060408201516127526040850182611dfa565b5060608201516127656060850182611dfa565b5060808201516127786080850182611dfa565b5060a082015161278b60a0850182611dfa565b50505050565b600060e08301600083015184820360008601526127ae8282612650565b91505060208301516127c36020860182612716565b508091505092915050565b60006127da8383612791565b905092915050565b6000602082019050919050565b60006127fa82612624565b612804818561262f565b93508360208202850161281685612640565b8060005b85811015612852578484038952815161283385826127ce565b945061283e836127e2565b925060208a0199505060018101905061281a565b50829750879550505050505092915050565b6000602082019050818103600083015261287e81846127ef565b905092915050565b7f4e487b7100000000000000000000000000000000000000000000000000000000600052602260045260246000fd5b600060028204905060018216806128cd57607f821691505b6020821081036128e0576128df612886565b5b50919050565b600081905092915050565b60006128fc82611c9a565b61290681856128e6565b9350612916818560208601611cb6565b80840191505092915050565b6000819050919050565b61293d61293882611df0565b612922565b82525050565b600061294f828c6128f1565b915061295b828b6128f1565b9150612967828a6128f1565b915061297382896128f1565b915061297f82886128f1565b915061298b82876128f1565b915061299782866128f1565b91506129a3828561292c565b6020820191506129b3828461292c565b6020820191508190509a9950505050505050505050565b600082825260208201905092915050565b7f417661696c61626c65206d656d6f7279206973206f7574206f662072616e6765600082015250565b6000612a116020836129ca565b9150612a1c826129db565b602082019050919050565b60006020820190508181036000830152612a4081612a04565b9050919050565b7f435055207573616765206973206f7574206f662072616e676500000000000000600082015250565b6000612a7d6019836129ca565b9150612a8882612a47565b602082019050919050565b60006020820190508181036000830152612aac81612a70565b9050919050565b600081519050919050565b600081905092915050565b6000612ad482612ab3565b612ade8185612abe565b9350612aee818560208601611cb6565b80840191505092915050565b6000819050919050565b612b15612b1082611c01565b612afa565b82525050565b6000612b278285612ac9565b9150612b338284612b04565b6020820191508190509392505050565b7f4172726179206c656e677468206d69736d617463680000000000000000000000600082015250565b6000612b796015836129ca565b9150612b8482612b43565b602082019050919050565b60006020820190508181036000830152612ba881612b6c565b9050919050565b7f4e487b7100000000000000000000000000000000000000000000000000000000600052603260045260246000fd5b7f4e487b7100000000000000000000000000000000000000000000000000000000600052601160045260246000fd5b6000612c1882611df0565b91507fffffffffffffffffffffffffffffffffffffffffffffffffffffffffffffffff8203612c4a57612c49612bde565b5b600182019050919050565b6000612c61828a6128f1565b9150612c6d82896128f1565b9150612c7982886128f1565b9150612c8582876128f1565b9150612c9182866128f1565b9150612c9d82856128f1565b9150612ca982846128f1565b915081905098975050505050505050565b7f44657669636520494420616c7265616479206578697374730000000000000000600082015250565b6000612cf06018836129ca565b9150612cfb82612cba565b602082019050919050565b60006020820190508181036000830152612d1f81612ce3565b9050919050565b60008190508160005260206000209050919050565b60006020601f8301049050919050565b600082821b905092915050565b600060088302612d887fffffffffffffffffffffffffffffffffffffffffffffffffffffffffffffffff82612d4b565b612d928683612d4b565b95508019841693508086168417925050509392505050565b6000819050919050565b6000612dcf612dca612dc584611df0565b612daa565b611df0565b9050919050565b6000819050919050565b612de983612db4565b612dfd612df582612dd6565b848454612d58565b825550505050565b600090565b612e12612e05565b612e1d818484612de0565b505050565b5b81811015612e4157612e36600082612e0a565b600181019050612e23565b5050565b601f821115612e8657612e5781612d26565b612e6084612d3b565b81016020851015612e6f578190505b612e83612e7b85612d3b565b830182612e22565b50505b505050565b600082821c905092915050565b6000612ea960001984600802612e8b565b1980831691505092915050565b6000612ec28383612e98565b9150826002028217905092915050565b612edb82611c9a565b67ffffffffffffffff811115612ef457612ef3611ef9565b5b612efe82546128b5565b612f09828285612e45565b600060209050601f831160018114612f3c5760008415612f2a578287015190505b612f348582612eb6565b865550612f9c565b601f198416612f4a86612d26565b60005b82811015612f7257848901518255600182019150602085019450602081019050612f4d565b86831015612f8f5784890151612f8b601f891682612e98565b8355505b6001600288020188555050505b505050505050565b600060e0830160008301518482036000860152612fc18282612650565b9150506020830151612fd66020860182612716565b508091505092915050565b60006020820190508181036000830152612ffb8184612fa4565b905092915050565b7f44657669636520494420646f6573206e6f742065786973740000000000000000600082015250565b60006130396018836129ca565b915061304482613003565b602082019050919050565b600060208201905081810360008301526130688161302c565b905091905056fea264697066735822122048b660bd9a517106be58ee57d977207ab5878f0a99258e0a3558927ecf0bb73564736f6c63430008120033",
  "linkReferences": {},
  "deployedLinkReferences": {}
}